:020000040800F2
:100000000050002021020008294A00082D4A00085B
:10001000314A0008354A0008394A0008000000004B
:10002000000000000000000000000000D14F0008A8
:100030003D4A00080000000099500008414A0008AD
:1000400071400008714000087140000871400008CC
:100050007140000871400008494A0008554A0008EC
:1000600071400008714000087140000871400008AC
:10007000714000087140000871400008714000089C
:10008000714000087140000871400008714000088C
:100090006D4A000871400008714000087140000876
:1000A000714000087D4A0008714000087140000856
:1000B000714000087140000871400008714000085C
:1000C000714000087140000871400008714000084C
:1000D00071400008714000088D4A00089D4A0008E0
:1000E00071400008714000087140000800000000E5
:1000F0000000000000000000000000000000000000
:1001000000000000000000005FF808F100B583B0B7
:1001100003F016FF304B314A1360314A1360314B04
:10012000314A03E011681960043304322F498B42CD
:10013000F8D32A4B1A682E4B9A4204D1284B1A68DE
:100140002C4B9A4200D0FEE7234B2B4A13602B4ADC
:1001500013602B4B02E000221A600433294A9342B9
:10016000F9D3254B1B6813B9244B1B6803B1FEE779
:1001700003F0F2FE694601A803F08CFE224C234BEB
:100180001C1BA410002504E01F4B53F82530984792
:100190000135AC42F8DC1E4C1E4B1C1BA410002584
:1001A00004E01B4B53F8253098470135AC42F8DC8E
:1001B0000099019804F0CCF90546174C174B1C1B0D
:1001C000A41004E0013C144B53F824309847002C51
:1001D000F8DC284603F03AFEBABADECA0000002076
:1001E0002C010020000000203C7F0008300100208E
:1001F0007856341232547698300100207022002054
:1002000030010020742200207803000878030008E1
:1002100078030008780300087803000878030008D2
:1002200008B5FFF773FF00BF00BEFEE71EF0040F26
:100230000CBFEFF30880EFF309807146414A104785
:100240002DE9F04182B004468846134B5E6B9F6BEC
:100250009D6A1B6B13F0020F0DD00F4BDB6A002B56
:1002600009DA4BF6AB6103F0F3FE20B14FF0004228
:10027000094BDA620CE0094803F014FECDF8008067
:100280003B4632462946204603F06AFE00BEFEE7A2
:1002900002B0BDE8F08100BF00ED00E0707D000815
:1002A00000BEFEE71EF0040F0CBFEFF30880EFF373
:1002B00009807146244A10472DE9F04182B0044676
:1002C0008846084B5E6B9F6B9D6A074803F0EAFD0A
:1002D000CDF800803B4632462946204603F040FEDA
:1002E00000BEFEE700ED00E0807D00081EF0040F78
:1002F0000CBFEFF30880EFF309807146134A1047F3
:100300002DE9F04182B004468846084B5E6B9F6B36
:100310009D6A074803F0C6FDCDF800803B46324693
:100320002946204603F01CFE00BEFEE700ED00E07B
:100330008C7D000800BEFEE700BEFEE700BEFEE7C3
:100340007047000041020008B902000801030008DC
:100350003C7F000800000020300100203C7F0008A6
:100360000000000000000000300100207422002086
:08037000000000000000000085
:1003780008B5074A136843F010031360032000F020
:1003880051FA002004F010FB04F0BEF9002008BD6B
:1003980000200240024A136801331360704700BF0F
:1003A80034010020014B1868704700BF3401002059
:1003B80010B582B00190FFF7F5FF0446FFF7F2FF92
:1003C800001B019B9842F9D302B010BDF0B583B071
:1003D80005460C460023019303687A4A934208D0E5
:1003E80002F58062934204D040F2AC61764804F092
:1003F80089F92368112B04D940F2AD61724804F0E1
:1004080081F96368013B0F2B04D940F2AE616E4855
:1004180004F078F9A368072B04D940F2AF616A4861
:1004280004F070F995F82430012B00F0C7800123FF
:1004380085F824306368062B1BD82E68706B4FF440
:10044800787292FAA2F1B1FA81F1013B03FB01F152
:100458001F2707FA01F120EA0101206892FAA2F2A7
:10046800B2FA82F203FB02F200FA02F20A43726362
:1004780037E00C2B1AD82E68376B4FF4787292FA43
:10048800A2F0B0FA80F0073B03FB00F01F2101FA4D
:1004980000F027EA0000216892FAA2F2B2FA82F28A
:1004A80003FB02F39940014331631AE02E68F16AB5
:1004B8004FF4787292FAA2F0B0FA80F00D3B03FB89
:1004C80000F01F2707FA00F021EA0000216892FADD
:1004D800A2F2B2FA82F203FB02F301FA03F3034336
:1004E800F362206809281BD92E68F768382292FA27
:1004F800A2F1B1FA81F1A0F10A0303FB01F107208F
:1005080000FA01F127EA0101A06892FAA2F2B2FA10
:1005180082F203FB02F300FA03F20A43F26018E0E6
:100528002F683E69382292FAA2F1B1FA81F100FBF4
:1005380001F1072303FA01F126EA0101A66892FAFC
:10054800A2F2B2FA82F200FB02F306FA03F30B43BB
:100558003B612368103B012B27D82B68194A93422B
:100568001DD19A6812F4000F21D19A6842F4000252
:100578009A602368102B1CD1144B1B68144AA2FBE9
:1005880003239B0C03EB83035A00019202E0019BB7
:10059800013B0193019B002BF9D100200AE0AB6AD3
:1005A80043F02003AB62012004E0002002E00020B9
:1005B80000E00020002385F8243000E0022003B08A
:1005C800F0BD00BF002401401C7A00080C00002088
:1005D80083DE1B4338B503689A6812F0010F1ED0FA
:1005E80004469A6822F001029A60FFF7DBFE05468E
:1005F8000EE0FFF7D7FE401B022809D9A36A43F093
:100608001003A362E36A43F00103E362012038BDEB
:1006180023689B6813F0010FEBD1002038BD002040
:1006280038BD00BF002800F0F28038B504460368E2
:10063800784A934208D002F58062934204D04FF47E
:10064800C271754804F05EF863683BB1B3F5006F9A
:1006580004D040F28511704804F054F8A3683BB107
:10066800B3F5807F04D04FF4C3716B4804F04AF8A7
:10067800E368012B04D940F28711674804F042F877
:10068800E369B3B1B3F5003F13D0B3F5C02F10D071
:10069800B3F5002F0DD0B3F5202F0AD0B3F5402FB6
:1006A80007D0B3F5602F04D04FF4C4715A4804F052
:1006B80029F8A368DBB12369013B0F2B04D94FF458
:1006C800C671554804F01EF86369012B04D940F23D
:1006D8008D11514804F016F8636943B1A369013BD1
:1006E800072B04D94FF4C8714B4804F00BF8A36AE0
:1006F8002BB9E36284F82430204604F04DF82046F4
:10070800FFF768FFA36A13F0100F7AD1002878D199
:10071800A36A23F4885323F0020343F00203A3627D
:100728006268E3691A43E168022393FAA3F3B3FA10
:1007380083F301FA03F31343A268B2F5807F04D070
:10074800012A05D14FF4807503E04FF4807500E06D
:1007580000256269012A15D161B9A269013A4FF4ED
:10076800604191FAA1F1B1FA81F18A4042F4006244
:10077800154307E0A26A42F02002A262E26A42F050
:100788000102E26221684A6822F469422A434A6007
:1007980021688D68214A2A401A438A60A268B2F506
:1007A800807F01D0012A0AD12269013A4FF47001F1
:1007B80091FAA1F1B1FA81F102FA01F100E0002108
:1007C8002568EA6A22F470020A43EA62226891689C
:1007D800134A0A40934208D10023E362A36A23F034
:1007E800030343F00103A36238BDA36A23F0120395
:1007F80043F01003A362E36A43F00103E3620120BC
:1008080038BDA36A43F01003A362012038BD01205C
:10081800704700BF002401401C7A0008FDF7E1FF83
:10082800FE0E1FFF10B50446C31E042B03D9BA21C0
:10083800094803F067FF094AD36823F4E0631B04FF
:100848001B0C240204F4E064234343F0BF6343F425
:100858000033D36010BD00BF487A000800ED00E007
:1008680070B504460E4615460F2A03D9D2211A48F8
:1008780003F048FF0F2E03D9D321174803F042FF96
:10088800164BDA68C2F30222C2F10701042928BF15
:100898000421131D062B01D9033A00E0002201238D
:1008A80003FA01F101393140914003FA02F2013AA9
:1008B8002A400A43002C06DA04F00F041201D2B2CF
:1008C800074B1A5570BD1201D2B204F1604404F509
:1008D800614484F8002370BD487A000800ED00E008
:1008E80014ED00E010B5041E03DAE621064803F013
:1008F80009FF620904F01F04012303FA04F4034BFF
:1009080043F8224010BD00BF487A000800E100E02B
:100918000138B0F1807F0AD2064B5860F021064AB0
:1009280082F823100020986007221A60704701207F
:10093800704700BF10E000E000ED00E010B504468D
:10094800042805D020B14FF4DF71084803F0DAFE1F
:10095800042C05D1064A136843F00403136010BD44
:10096800034A136823F00403136010BD487A000893
:1009780010E000E0B0B110B5044602680A4B9A4294
:1009880003D07921094803F0BDFE637913F0FF0F06
:1009980004D100232371204603F01EFF0123637155
:1009A800002010BD0120704700300240787A00080E
:1009B800002800F0898010B504460368434A934232
:1009C80015D01432934212D0143293420FD01432FD
:1009D80093420CD01432934209D01432934206D079
:1009E8001432934203D0B521394803F08BFE636873
:1009F80043B1102B06D0B3F5804F03D0B62134484D
:100A080003F080FEA368402B04D01BB1B721304807
:100A180003F078FEE368802B04D01BB1B8212C4882
:100A280003F070FE23694BB1B3F5807F06D0B3F5B0
:100A3800007F03D0B921264803F064FE63694BB1F7
:100A4800B3F5806F06D0B3F5006F03D0BA21204804
:100A580003F058FEA3692BB1202B03D0BB211C48FF
:100A680003F050FEE36963B1B3F5805F09D0B3F5D5
:100A7800005F06D0B3F5405F03D0BC21144803F0F3
:100A880041FE94F821300BB984F82030022384F811
:100A980021302068036823F47F5222F03002616815
:100AA800A3681943E3681943236919436369194320
:100AB800A3691943E3690B43134303600020606390
:100AC800012384F8213010BD01207047080002403E
:100AD800A47A00082DE9F04383B080460F46AE4B58
:100AE800984213D003F5806398420FD003F58063D2
:100AF80098420BD003F58063984207D003F58063D2
:100B0800984203D0CF21A54803F0FCFD3B881BB9D0
:100B1800D021A24803F0F6FD7B68012B22D9112BC6
:100B280020D0022B1ED0122B1CD09D4A934219D0E4
:100B380002F58012934215D002F58012934211D02B
:100B4800A2F5F81293420DD002F58012934209D013
:100B580002F58012934205D0032B03D0D1218F4890
:100B680003F0D0FD4FF000094E462BE10125B540BA
:100B78003C682C40A54240F02481874B984513D00F
:100B880003F5806398450FD003F5806398450BD033
:100B980003F58063984507D003F58063984503D033
:100BA800DF217E4803F0AEFD7B68122B49D00CD8BC
:100BB800022B3AD004D8002B4FD0012B1ED067E06F
:100BC800032B60D0112B24D062E0764A934244D0A4
:100BD80008D8A2F5801293423FD002F580329342A2
:100BE80056D13AE0704A934237D002F580329342A8
:100BF80033D0A2F5801293424AD12EE0FB68013B24
:100C0800022B03D9E721654803F07CFDD7F80C9047
:100C18003EE0FB68013B022B03D9EE215F4803F05D
:100C280071FDFB6803F1040932E0FB68013B022B0C
:100C380003D9F521594803F065FDFB6803F108095C
:100C480026E0FB68013B022B03D9FC21534803F043
:100C580059FDFB6803F10C091AE0BB68022B04D9A3
:100C680040F209114D4803F04DFDBB6873B1012BEB
:100C780004D1C8F810504FF0080909E0C8F814501A
:100C88004FF0080904E04FF0000901E04FF00409B3
:100C9800FF2C01D8404601E008F10400FF2C01D8E0
:100CA800B30002E0A6F108039B0001680F229A40F6
:100CB80021EA020209FA03F3134303607B6813F085
:100CC800805F7ED0394B9A6942F001029A619B6934
:100CD80003F001030193019BB1088A1C344B53F8BC
:100CE800222006F003039B000F20984022EA000010
:100CF800294A90450DD002F5806290450BD002F547
:100D08008062904509D002F58062904507D10322A0
:100D180006E0002204E0012202E0022200E00422B0
:100D280002FA03F303430231214A42F821307B6877
:100D380013F4803F05D002F58062136823431360E3
:100D480004E01C4A136823EA040313607B6813F465
:100D5800003F04D0174A53682343536004E0154A00
:100D6800536823EA040353607B6813F4801F04D09C
:100D7800104A93682343936004E00E4A936823EA79
:100D8800040393607B6813F4001F15D0094AD368E5
:100D98001C43D46015E000BF00080140D07A000869
:100DA8000000111000002110000031100010024056
:100DB8000000014000040140054AD36823EA040406
:100DC800D46001360F2E7FF6D1AE03B0BDE8F083B4
:100DD8000004014070B5064615460C4621B94FF48B
:100DE800F271084803F08EFC012D04D940F2E51198
:100DF800044803F087FC0DB1346170BD24043461EC
:100E080070BD00BFD07A000838B504460D4621B938
:100E18004FF4FD71034803F075FCE1686940E16037
:100E280038BD00BFD07A000808B5044B5B6903429F
:100E380003D0024B586103F00FFE08BD00040140C7
:100E48004368114A934208D85800B1FBF0F0C0F348
:100E58000B03032B16D804207047826832B903EBC2
:100E68004300B1FBF0F040F4004007E003EB8300DF
:100E780000EB8000B1FBF0F040F44040C0F30B03FE
:100E880003B90120704700BFA0860100002800F0C8
:100E9800AB8038B504460368544A934208D002F53B
:100EA8008062934204D04FF4A571514803F02AFCA4
:100EB8006368013B4F4A934204D940F24B114C48B6
:100EC80003F020FCA3683BB1B3F5804F04D04FF486
:100ED800A671474803F016FCE36823F47F7323F0F8
:100EE800030323B140F24D11414803F00BFC236981
:100EF800B3F5804F07D0B3F5404F04D04FF4A77136
:100F08003B4803F0FFFB6369012B04D940F24F1102
:100F1800374803F0F7FBA36933F0FE0304D04FF41E
:100F2800A871334803F0EEFBE36933B1402B04D0DA
:100F380040F251112E4803F0E5FB236A33B1802BB0
:100F480004D04FF4A9712A4803F0DCFB94F835303B
:100F580013F0FF0F05D1002384F83430204603F046
:100F68004FFC242384F835302268136823F00103EA
:100F7800136001F001FA01461F4BA3FB00239B0CF1
:100F880022685360206865681C4A954201D801337D
:100F980008E04FF4967202FB03F3194AA2FB0323FD
:100FA8009B090133036225682046FFF749FFE86182
:100FB8002268E169236A0B43136022682169E368A8
:100FC8000B43936022686169A3690B43D36022686D
:100FD800136843F0010313600020A063202384F802
:100FE800353084F8360038BD012070470054004081
:100FF800007B00087F1A060083DE1B43A0860100E1
:10100800D34D6210002870D0F0B587B0044602684E
:10101800384B9A4203D0A121374803F073FB94F868
:10102800E93313F0FF0F05D1002384F8E833204695
:1010380003F054FD032384F8E933206802F00CFB25
:10104800254655F8107B6E460FCD0FC62B683360CA
:10105800231D0ECB384602F0EDFA0021206802F07D
:1010680005FB002310E004EB4312012182F829104C
:1010780082F828309386002182F82B109163D1637F
:101088009A1C5201A15001330E2BECD9002312E017
:1010980004EB4312002182F8091282F80832938681
:1010A80082F80B12C2F81812C2F81C1203F11102CE
:1010B8005201A15001330E2BEAD9254655F8107B71
:1010C8006E460FCD0FC62B683360231D0ECB3846F6
:1010D80002F0CEFA002584F82450012384F8E9337D
:1010E800206802F00FFD284601E00120704707B094
:1010F800F0BD00BF005C00402C7B000890F8E8338E
:10110800012B10D010B50446012180F8E81303F034
:10111800D1FD206802F0F4FC206802F093FA002068
:1011280084F8E80310BD0220704700BF90F8E83348
:10113800012B11D010B50446012380F8E83300686C
:1011480002F08AFA206802F0C9FC206802F0DAFC92
:10115800002084F8E80310BD0220704790F8E833B7
:10116800012B0DD010B50446012380F8E83380F830
:101178002410006802F0BEFC002084F8E80310BDCB
:101188000220704738B54DB2002D05DA01F07F0412
:1011980064012834044405E001F07F04640104F587
:1011A8000274044401F07F012170ED0F6570226123
:1011B800E37090F8E833012B0BD00546012380F843
:1011C800E8332146006802F067FA002085F8E80352
:1011D80038BD022038BD00BF70B501F07F056C0135
:1011E80004F5027101440444C4F81C2205F11102FB
:1011F8005201861883500023736084F8093284F8FA
:10120800085290F8E833012B0FD00446012380F8E8
:10121800E8331DB9006802F091FC02E0006802F0B2
:101228008DFC002084F8E80370BD022070BD00BF6B
:1012380070B501F07F056C0104F1280101440444F4
:10124800E263AA1C520186188350002373600123AD
:1012580084F8293084F8285090F8E833012B0FD00F
:101268000446012380F8E8331DB9006802F066FCE3
:1012780002E0006802F062FC002084F8E80370BD18
:10128800022070BD70B582B005460023ADF8063067
:10129800ADF8043016E2BDF8064014F00F0440F033
:1012A800C880BDF8063003F010039BB29BBB0388CF
:1012B8009BB223F4E14323F070039BB203802968B7
:1012C800B1F850309AB295F8283002EBC3030233D4
:1012D80001EB4303D3F80034C3F309036B64EA6BEF
:1012E8001344EB630021284603F02AFC95F82430C8
:1012F80013F0FF0F00F0E6812B6C002B40F0E28129
:101308002A6895F8243043F08003A2F84C30002373
:1013180085F82430D6E103889BB2ADF80430BDF8D7
:10132800043003F400639BB203B3B0F850309BB2AF
:1013380095F8082203EBC203063300EB4303D3F806
:101348000034C3F30903C5F82432B5F80C2205F5B7
:101358007B7102F067FD2A68138823F070031B0570
:101368001B0D1380284603F0D9FBABE1BDF8043010
:1013780013F4004F00F0A681038823F070031B05C7
:101388001B0D03802868B0F850309BB295F80822EE
:1013980003EBC203063300EB4303D3F80034C3F373
:1013A8000903C5F8243263B1B5F80C22D5F81C122C
:1013B80002F038FDD5F81C22D5F824321344C5F8BC
:1013C8001C320021284603F0B1FB2A68B2F85030DD
:1013D8009BB2063302EB4303D5F818123E290ED907
:1013E800C1F34F1211F01F0F01D1013A92B26FEA07
:1013F800C2626FEA524292B2C3F800240AE0C1F313
:101408004F0211F0010F01D0013292B2920292B252
:10141800C3F800242A6813889BB223F4804323F07E
:10142800700383F4405343F4004343F08003138074
:1014380048E130F824309BB2ADF80430BDF80430F0
:1014480013F4004F00F0968030F8243023F0700336
:101458001B051B0D20F8243005EB441393F81232BA
:10146800E3B92868B0F850309BB205EB441292F803
:10147800082203EBC203063300EB4303B3F800640E
:10148800C6F30906002E52D005EB44113346B1F8D5
:101498000C22D1F81C1202F0C5FC48E0286805EBC4
:1014A800441393F8081230F8213003F480439BB2B8
:1014B800B3B1B0F8502092B202EBC103023300EB93
:1014C8004303B3F80064C6F30906FEB105EB441103
:1014D8003346B1F80E22D1F81C1202F0A3FC15E035
:1014E800B0F850309BB203EBC103063300EB430363
:1014F800B3F80064C6F3090646B105EB4411334658
:10150800B1F81022D1F81C1202F08CFC2A6805EB05
:10151800441393F8081232F8213023F0F0031B0526
:101528001B0D43F4004343F0C00322F8213004F1BB
:1015380011035B01E9184A6832444A6005EB44111B
:10154800D1F81C223244C1F81C22EB581BB1D1F847
:1015580018128E4207D205EB441393F80812284656
:1015680003F0E4FA06E005EB441191F80812284666
:10157800FFF732FEBDF8043003F080039BB2002B66
:1015880000F0A0802A6832F824309BB223F4E143AB
:1015980023F070039BB222F8243005EB441393F830
:1015A8003230EBB92868B0F850309BB205EB4412E2
:1015B80092F8282003EBC203023300EB4303D3F86D
:1015C8000034C3F30903A21C05EB42125360002B3D
:1015D80051D005EB44118A8DC96B02F09BFA4AE0A1
:1015E800286805EB441393F8281030F8213003F0ED
:1015F80040039BB2BBB1B0F8502092B202EBC103DA
:10160800023300EB4303D3F80034C3F30903A21CED
:1016180005EB42125360EBB105EB4411CA8DC96B5F
:1016280002F078FA16E0B0F850309BB203EBC10331
:10163800063300EB4303D3F80034C3F30903A21CB9
:1016480005EB421253602BB105EB44110A8EC96BAE
:1016580002F060FA2A6805EB441393F8281032F870
:10166800213023F0F0031B051B0D43F4404343F0E6
:10167800800322F821302968B1F850309AB205EB7E
:10168800441090F8283002EBC303023301EB430304
:10169800D3F80034C3F30903A11C49016A18536045
:1016A800C26B1A44C2636B582BB990F828102846AD
:1016B80003F046FA06E005EB441494F8281028468F
:1016C800FFF7B6FD2868B0F844309BB2ADF8063095
:1016D80013F4004F7FF4DFAD002002B070BD00BFEF
:1016E80010B50446006802F00FFA10F4004F02D05B
:1016F8002046FFF7C7FD206802F006FA10F4806F55
:101708000FD02268B2F844309BB223F480639BB2B6
:10171800A2F84430204603F023FA00212046FFF7C0
:101728001DFD206802F0F0F910F4804F08D02268FF
:10173800B2F844309BB223F480439BB2A2F8443001
:10174800206802F0E1F910F4005F08D02268B2F8CE
:1017580044309BB223F400539BB2A2F84430206873
:1017680002F0D2F910F4805F19D02268B2F8403044
:101778009BB223F004039BB2A2F8403023684FF4D5
:101788003D42A3F84020204603F006FA2268B2F84A
:1017980044309BB223F480539BB2A2F844302068B3
:1017A80002F0B2F910F4006F21D02268B2F8443088
:1017B8009BB223F400639BB2A2F844302268B2F8CB
:1017C80040309BB243F00803A2F840302268B2F8D8
:1017D80040309BB243F00403A2F84030206802F086
:1017E80093F910F4805F02D1204603F0C5F9206810
:1017F80002F08AF910F4007F0BD02268B2F8443066
:101808009BB223F400739BB2A2F84430204603F045
:10181800A1F9206802F078F910F4807F08D02268D6
:10182800B2F844309BB223F480739BB2A2F84430E0
:1018380010BD00BF38B54AB2002A05DA01F07F03AF
:101848005B012833034403E04B0103F502730344AF
:1018580001249C7001F07F041C70D20F5A7090F81C
:10186800E823012A11D00546012280F8E823194609
:10187800006802F0AFF824B905F57B71286802F01A
:1018880047F9002085F8E80338BD022038BD00BFBD
:1018980010B54AB2002A05DA01F07F035B0128334C
:1018A800034403E04B0103F50273034400249C70D6
:1018B80001F07F011970D20F5A7090F8E823012ABD
:1018C8000BD00446012280F8E8231946006802F08C
:1018D800B9F8002084F8E80310BD022010BD00BF4D
:1018E80010B401F08004A4B22CB101F07F014901C9
:1018F8002831014403E0490101F50271014412B99C
:101908008A728B8004E001228A72CB801B0C0B81C7
:10191800002010BC704700BF30B583B0044620B922
:101928004FF48771B94802F0EDFE23683BB113F01C
:101938000F0F04D140F20F11B44802F0E3FE236800
:1019480013F0010F00F0A380636853B1B3F5803F33
:1019580007D0B3F5A02F04D040F21511AB4802F020
:10196800D1FEAB4B5B6803F00C03042B0AD0A84BE9
:101978005B6803F00C03082B1BD1A54B5B6813F4C1
:10198800803F16D04FF4003393FAA3F3A04B1A68A4
:101998004FF4003393FAA3F3B3FA83F303F01F036E
:1019A80022FA03F313F0010F71D06368002B6ED194
:1019B8001BE36368B3F5803F05D1954A136843F488
:1019C8008033136026E063B903F1804303F50433E1
:1019D8001A6822F480321A601A6822F480221A6087
:1019E80018E0B3F5A02F0CD103F18043A3F53C33E5
:1019F8001A6842F480221A601A6842F480321A6027
:101A080008E0834B1A6822F480321A601A6822F4BC
:101A180080221A606368EBB1FEF7C4FC054605E056
:101A2800FEF7C0FC401B642800F2E1824FF400334B
:101A380093FAA3F3764B1A684FF4003393FAA3F39F
:101A4800B3FA83F303F01F0322FA03F313F0010F31
:101A5800E6D01CE0FEF7A6FC054605E0FEF7A2FC72
:101A6800401B642800F2C5824FF4003393FAA3F3B5
:101A7800674B1A684FF4003393FAA3F3B3FA83F36E
:101A880003F01F0322FA03F313F0010FE6D12368D2
:101A980013F0020F00F0A0802369012B04D940F253
:101AA80049115A4802F02EFE63691F2B04D94FF4DE
:101AB800A571564802F026FE554B5B6813F00C0FD3
:101AC8000AD0534B5B6803F00C03082B27D1504B0B
:101AD8005B6813F4803F22D1022393FAA3F34C4BA3
:101AE8001A68022393FAA3F3B3FA83F303F01F03EC
:101AF80022FA03F313F0010F03D02369012B40F0FE
:101B08007A824348036823F0F8016369F82292FA5D
:101B1800A2F2B2FA82F293400B4303605CE02369BD
:101B28009BB3012292FAA2F3B3FA83F39B0003F169
:101B3800844303F584031A60FEF734FC054605E088
:101B4800FEF730FC401B022800F25782022393FA6A
:101B5800A3F32F4B1A68022393FAA3F3B3FA83F380
:101B680003F01F0322FA03F313F0010FE8D028480B
:101B7800036823F0F8016369F82292FAA2F2B2FA34
:101B880082F293400B43036026E0012393FAA3F308
:101B9800B3FA83F39B0003F1844303F58403002223
:101BA8001A60FEF7FFFB054605E0FEF7FBFB401B4E
:101BB800022800F22482022393FAA3F3144B1A6832
:101BC800022393FAA3F3B3FA83F303F01F0322FA71
:101BD80003F313F0010FE8D1236813F0080F5CD06A
:101BE800A369012B04D94FF4C571084802F08AFD96
:101BF800A3696BB3012292FAA2F3B3FA83F30549FE
:101C080041F82320FEF7CEFB05460BE06C7B00086D
:101C18000010024080044242FEF7C4FB401B022829
:101C280000F2EF81022393FAA3F293FAA3F2A44AF3
:101C3800526A93FAA3F3B3FA83F303F01F0322FA69
:101C480003F313F0010FE7D00120FEF7B1FB24E006
:101C5800012393FAA3F3B3FA83F30021994A42F8D4
:101C68002310FEF79FFB054605E0FEF79BFB401B94
:101C7800022800F2C881022393FAA3F293FAA3F28E
:101C88008F4A526A93FAA3F3B3FA83F303F01F035C
:101C980022FA03F313F0010FE7D1236813F0040FBE
:101CA80000F0AB80E368012B06D9052B04D040F285
:101CB800B711854802F026FD814BDA6942F080525F
:101CC800DA61DB6903F080530193019B7F4A136853
:101CD80043F480731360FEF765FB054605E0FEF7E5
:101CE80061FB401B642800F29081784B1B6813F459
:101CF800807FF4D0E368012B05D1714A136A43F061
:101D08000103136222E063B903F1804303F504334E
:101D18001A6A22F001021A621A6A22F004021A628E
:101D280014E0052B09D1664B1A6A42F004021A62C4
:101D38001A6A42F001021A6208E0614B1A6A22F03C
:101D480001021A621A6A22F004021A62E36853B3A3
:101D5800FEF728FB054607E0FEF724FB401B41F28F
:101D68008833984200F25381022393FAA3F293FA3C
:101D7800A3F3B3FA83F35B0943F00203DBB2022B4C
:101D880002D14F4B1A6A01E04D4B5A6A022393FA6B
:101D9800A3F3B3FA83F303F01F0322FA03F313F058
:101DA800010FD9D029E0FEF7FDFA054607E0FEF756
:101DB800F9FA401B41F28833984200F22A81022343
:101DC80093FAA3F293FAA3F3B3FA83F35B0943F00C
:101DD8000203DBB2022B02D1394B1A6A01E0384BFD
:101DE8005A6A022393FAA3F3B3FA83F303F01F03A7
:101DF80022FA03F313F0010FD9D1E369022B04D9B6
:101E080040F24721304802F07DFCE369002B00F0E6
:101E180002812B4A526802F00C02082A00F0FD8069
:101E2800022B40F0B780236A3BB1B3F5803F04D062
:101E38004FF41471244802F065FC636A73B3B3F578
:101E4800802F2BD0B3F5002F28D0B3F5402F25D005
:101E5800B3F5801F22D0B3F5A01F1FD0B3F5C01F64
:101E68001CD0B3F5E01F19D0B3F5001F16D0B3F599
:101E7800101F13D0B3F5201F10D0B3F5301F0DD0AD
:101E8800B3F5401F0AD0B3F5501F07D0B3F5601F54
:101E980004D040F251210C4802F034FC4FF080731A
:101EA80093FAA3F3B3FA83F39B0003F1844303F596
:101EB800840300221A60FEF775FA05460EE000BF9B
:101EC80000100240800442426C7B00080070004011
:101ED800FEF768FA401B022800F2A1804FF0007359
:101EE80093FAA3F3514B1A684FF0007393FAA3F3D4
:101EF800B3FA83F303F01F0322FA03F313F0010F7D
:101F0800E6D1236AB3F5803F10D1A3683BB1B3F59E
:101F1800003F04D040F26721454802F0F3FB4349F3
:101F28004B6823F40032A36813434B603F4843686F
:101F380023F47411236A626A13430B4343604FF01E
:101F4800807393FAA3F3B3FA83F39B0003F18443FA
:101F580003F5840301221A60FEF724FA044604E01C
:101F6800FEF720FA001B02285BD84FF0007393FAA3
:101F7800A3F32E4B1A684FF0007393FAA3F3B3FA46
:101F880083F303F01F0322FA03F313F0010FE7D0E2
:101F9800002049E04FF0807393FAA3F3B3FA83F378
:101FA8009B0003F1844303F5840300221A60FEF7C3
:101FB800F9F9044604E0FEF7F5F9001B022832D8C7
:101FC8004FF0007393FAA3F3184B1A684FF000739D
:101FD80093FAA3F3B3FA83F303F01F0322FA03F38C
:101FE80013F0010FE7D100201EE001201CE00320C0
:101FF8001AE0032018E0012016E0032014E0032073
:1020080012E0032010E003200EE003200CE0032080
:102018000AE0032008E0002006E0012004E0032095
:1020280002E0032000E0032003B030BD00100240AE
:102038006C7B000830B486B01F4D02AC2868696814
:10204800AA68EB680FC42B8AADF804301B4B5B6899
:1020580003F00C02082A2AD103F470114FF470120D
:1020680092FAA2F2B2FA82F221FA02F206A90A441C
:1020780012F8102C13F4803F15D0104B5B6803F452
:1020880000314FF4003393FAA3F3B3FA83F321FA40
:1020980003F306A90B4413F8140C094BB3FBF0F037
:1020A80000FB02F004E0074800FB02F000E00448EF
:1020B80006B030BC704700BF587B000800100240D3
:1020C80000127A0000093D0070B50D46044620B99B
:1020D8004FF42F71A04802F015FB236813F00F0F7F
:1020E80004D140F2BD219C4802F00CFB022D04D91A
:1020F80040F2BE21984802F005FB984B1B6803F09C
:1021080007039D420BD9954A136823F007032B4315
:102118001360136803F007039D4240F00D812368A4
:1021280013F0020F1DD0A368A3B1802B12D0902BFF
:1021380010D0A02B0ED0B02B0CD0C02B0AD0D02B97
:1021480008D0E02B06D0F02B04D040F2D7218248EB
:1021580002F0D8FA82494B6823F0F002A3681343CF
:102168004B60236813F0010F00F081806368022B35
:1021780004D940F2DE21784802F0C4FA6268012AE4
:1021880013D14FF4003393FAA3F3754B19684FF446
:10219800003393FAA3F3B3FA83F303F01F0321FA8E
:1021A80003F313F0010F28D1C8E0022A13D14FF02E
:1021B800007393FAA3F36A4B19684FF0007393FA0C
:1021C800A3F3B3FA83F303F01F0321FA03F313F025
:1021D800010F12D1B4E0022393FAA3F3604B1968FC
:1021E800022393FAA3F3B3FA83F303F01F0321FA4C
:1021F80003F313F0010F00F0A58059494B6823F051
:10220800030313434B60FEF7CDF806466368012BC2
:102218000FD107E0FEF7C6F8801B41F288339842D9
:1022280000F292804E4B5B6803F00C03042BF1D153
:102238001DE0022B16D107E0FEF7B4F8801B41F22F
:102248008833984200F28280454B5B6803F00C03A8
:10225800082BF1D10BE0FEF7A5F8801B41F288337B
:10226800984275D83E4B5B6813F00C0FF3D13B4B8B
:102278001B6803F007039D420AD2384A136823F00B
:1022880007032B431360136803F007039D4261D1D2
:10229800236813F0040F19D0E36883B1B3F5806F96
:1022A8000DD0B3F5A06F0AD0B3F5C06F07D0B3F562
:1022B800E06F04D040F23231274802F023FA28496F
:1022C8004B6823F4E062E36813434B60236813F020
:1022D800080F1AD0236983B1B3F5806F0DD0B3F519
:1022E800A06F0AD0B3F5C06F07D0B3F5E06F04D084
:1022F80040F23931184802F005FA194A536823F4B4
:102308006053216943EAC1035360FFF793FE144BFE
:102318005B6803F0F002F02393FAA3F3B3FA83F3B4
:1023280022FA03F30F4AD35CD8400F4B1860002001
:1023380002F03AFB002070BD012070BD012070BD85
:10234800012070BD012070BD032070BD032070BD49
:10235800032070BD012070BD6C7B00080020024086
:10236800001002409C7D00080C000020014B1868FA
:10237800704700BF0C00002008B5FFF7F7FF084BB7
:102388005B6803F4E0624FF4E06393FAA3F3B3FAF3
:1023980083F322FA03F3034AD35CD84008BD00BF95
:1023A80000100240AC7D000808B5FFF7DFFF084BBE
:1023B8005B6803F460524FF4605393FAA3F3B3FAE3
:1023C80083F322FA03F3034AD35CD84008BD00BF65
:1023D80000100240AC7D000838B50D46044620B90F
:1023E80040F2AD41114802F08DF925B940F2AE41F5
:1023F8000E4802F087F90F2323600D4B5A6802F04C
:10240800030262605A6802F0F002A2605A6802F49D
:10241800E062E2605B68DB0803F4E0632361054B7C
:102428001B6803F007032B6038BD00BF6C7B0008F6
:102438000010024000200240F0B583B00446036853
:1024480013F0130F03D17E215F4802F05BF9236874
:1024580013F0010F7FD0636863B1B3F5807F09D0B3
:10246800B3F5007F06D0B3F5407F03D084215648EA
:1024780002F048F9554BDA6942F08052DA61DB69BB
:1024880003F080530193019B514A136843F480730E
:102498001360FDF787FF054605E0FDF783FF401B46
:1024A800642800F289804A4B1B6813F4807FF4D0BB
:1024B800464B1B6A13F4407346D0626802F44072BC
:1024C800934241D04148016A21F440764FF4803369
:1024D80093FAA3F2B2FA82F23E4D012745F8227030
:1024E80093FAA3F3B3FA83F3002245F82320066294
:1024F80011F0010F28D0FDF755FF054606E0FDF75E
:1025080051FF401B41F28833984257D8022393FA6F
:10251800A3F293FAA3F3B3FA83F35B0943F002033C
:10252800DBB2022B02D1294B1A6A01E0274B5A6A07
:10253800022393FAA3F3B3FA83F303F01F0322FAF7
:1025480003F313F0010FDAD020490B6A23F4407229
:10255800636813430B62236813F0020F15D0A36856
:1025680063B1B3F5804F09D0B3F5004F06D0B3F58A
:10257800404F03D0BA21144802F0C4F813494B68FD
:1025880023F44042A36813434B60236813F0100FF1
:1025980016D0E368B3F5800F05D023B14FF48B71E3
:1025A800094802F0AFF809494B6823F48002E36850
:1025B80013434B60002004E0032002E0032000E006
:1025C800002003B0F0BD00BF987B00080010024057
:1025D80000700040000442422DE9F04104460D46D7
:1025E800036A23F001030362066AD0F8048087694E
:1025F80027F073030F681F4326F002038E681E43FB
:102608001C4B98420ED1CB6833B1082B04D041F251
:102618001521194802F076F826F00806EB681E43E3
:1026280026F00406134B9C421BD1AB69B3F5007F1F
:1026380005D023B141F222210F4802F063F86B69FB
:10264800B3F5807F05D023B141F223210A4802F077
:1026580059F828F440786B6948EA0308AB6948EAF6
:102668000308C4F80480A7616B6863632662BDE849
:10267800F08100BF002C0140C87B00082DE9F04123
:1026880004460E46036A23F480730362056AD0F891
:102698000480C76927F073030F681F4325F400738C
:1026A8008D6843EA05251D4B98420FD1CB6833B19D
:1026B800082B04D041F2AA21194802F023F825F486
:1026C8000065F36845EA032525F48065134B9C42B1
:1026D8001BD1B369B3F5007F05D023B141F2B7210F
:1026E8000F4802F00FF87369B3F5807F05D023B166
:1026F80041F2B8210A4802F005F828F440587369F5
:1027080048EA0318B36948EA0318C4F80480E76183
:102718007368E3632562BDE8F08100BF002C0140C7
:10272800C87B00082DE9F04104460F46036A23F4EC
:1027380080530362056AD0F80480C66926F4E6432C
:102748000E6843EA062625F400538D6843EA0535EA
:102758000C4B98420ED14B69B3F5807F05D023B15D
:1027680041F2F521084801F0CDFF28F480487B6943
:1027780048EA8318C4F80480E6617B68236425620C
:10278800BDE8F081002C0140C87B0008704700BFFD
:1027980010B5044603680F4A93420FD0B3F1804F37
:1027A8000CD0A2F59432934208D002F5806293428D
:1027B80004D04FF4AF71084801F0A4FF2268D36831
:1027C80043F00103D3602268136843F001031360E8
:1027D800002010BD002C0140C87B0008704700BFD6
:1027E800704700BF704700BF704700BF10B5044670
:1027F80003681A6912F0020F17D0DA6812F0020F94
:1028080013D06FF002021A610123037603689B69F3
:1028180013F0030F02D0FFF7E3FF04E0FFF7DEFF3A
:102828002046FFF7DFFF0023237623681A6912F09A
:10283800040F19D0DA6812F0040F15D06FF00402F3
:102848001A610223237623689B6913F4407F03D01F
:102858002046FFF7C5FF05E02046FFF7BFFF2046EB
:10286800FFF7C0FF0023237623681A6912F0080FC8
:1028780019D0DA6812F0080F15D06FF008021A6143
:10288800042323762368DB6913F0030F03D0204663
:10289800FFF7A6FF05E02046FFF7A0FF2046FFF759
:1028A800A1FF0023237623681A6912F0100F19D0AC
:1028B800DA6812F0100F15D06FF010021A610823B1
:1028C80023762368DB6913F4407F03D02046FFF7A3
:1028D80087FF05E02046FFF781FF2046FFF782FFCC
:1028E8000023237623681A6912F0010F09D0DA68E9
:1028F80012F0010F05D06FF001021A61204601F0B5
:1029080011FD23681A6912F0800F09D0DA6812F0F5
:10291800800F05D06FF080021A61204600F00AFB94
:1029280023681A6912F0400F09D0DA6812F0400FD4
:1029380005D06FF040021A612046FFF755FF236863
:102948001A6912F0200F09D0DA6812F0200F05D0AA
:102958006FF020021A61204600F0EAFA10BD00BFAD
:102968000368184A90420AD0B0F1804F07D0A2F508
:102978009432904203D002F58062904203D123F052
:1029880070034A6813430F4A90420AD0B0F1804F4F
:1029980007D0A2F59432904203D002F580629042AB
:1029A80003D123F44073CA68134303608B68C3627E
:1029B8000B688362034B984201D10B6903630123BF
:1029C80043617047002C0140002845D010B50446EB
:1029D8000368224A93420ED0B3F1804F0BD0A2F580
:1029E8009432934207D002F58062934203D0D721F4
:1029F8001B4801F087FEA3685BB1102B09D0202B80
:102A080007D0402B05D0602B03D0D821144801F003
:102A180079FE23694BB1B3F5807F06D0B3F5007F0B
:102A280003D0D9210E4801F06DFE94F8393013F027
:102A3800FF0F05D1002384F838302046FFF7A6FEA3
:102A4800022384F83930211D2068FFF789FF01230C
:102A580084F83930002010BD01207047002C014057
:102A6800C87B0008002848D010B504460368244AEB
:102A780093420FD0B3F1804F0CD0A2F59432934219
:102A880008D002F58062934204D040F2E2311D483A
:102A980001F038FEA36863B1102B0AD0202B08D0B0
:102AA800402B06D0602B04D040F2E331154801F0EA
:102AB80029FE236953B1B3F5807F07D0B3F5007FB2
:102AC80004D04FF479710F4801F01CFE94F83930A6
:102AD80013F0FF0F05D1002384F83830204601F0A9
:102AE800B3FE022384F83930211D2068FFF738FF30
:102AF800012384F83930002010BD0120704700BF41
:102B0800002C0140C87B00082DE9F04104460F461F
:102B1800036A23F010030362056AD0F8048086690B
:102B280026F4E6430E6843EA062625F020038D685E
:102B380043EA05151C4B98420FD1CB6833B1082BDB
:102B480004D041F25F21194801F0DCFD25F0800531
:102B5800FB6845EA031525F04005134B9C421BD141
:102B6800BB69B3F5007F05D023B141F26D210F4851
:102B780001F0C8FD7B69B3F5807F05D023B141F230
:102B88006E210A4801F0BEFD28F440687B6948EAD6
:102B98008308BB6948EA8308C4F80480A6617B6897
:102BA800A3632562BDE8F081002C0140C87B0008C2
:102BB80090F83830012B00F0E88070B516460D46C5
:102BC8000446012380F8383062B1042A0AD0082A62
:102BD80008D00C2A06D0182A04D040F60D416C48BB
:102BE80001F090FD2B68602B06D0702B04D040F6C6
:102BF8000E41674801F086FDAB6833B1022B04D063
:102C080040F60F41624801F07DFD2B6933B1042B7A
:102C180004D04FF441615E4801F074FD022384F84A
:102C280039300C2E00F2AA80DFE806F007A8A8A821
:102C38002FA8A8A858A8A8A880002368554A934296
:102C48000FD0B3F1804F0CD0A2F59432934208D044
:102C580002F58062934204D040F618414C4801F0D6
:102C680051FD29462068FFF7B7FC2268936943F0B5
:102C7800080393612268936923F00403936122682F
:102C880091692B690B43936178E02368414A934229
:102C98000FD0B3F1804F0CD0A2F59432934208D0F4
:102CA80002F58062934204D040F62741384801F08B
:102CB80029FD29462068FFF727FF2268936943F416
:102CC800006393612268936923F4806393612268A7
:102CD8009369296943EA012393614FE023682D4AE8
:102CE80093420FD0B3F1804F0CD0A2F594329342A7
:102CF80008D002F58062934204D040F63641244859
:102D080001F000FD29462068FFF7B8FC2268D36966
:102D180043F00803D3612268D36923F00403D36125
:102D28002268D1692B690B43D36127E02368194ACC
:102D380093420FD0B3F1804F0CD0A2F59432934256
:102D480008D002F58062934204D040F6454110480D
:102D580001F0D8FC29462068FFF7E4FC2268D36913
:102D680043F40063D3612268D36923F48063D36199
:102D78002268D369296943EA0123D361012384F8CE
:102D88003930002084F8380070BD0220704700BF39
:102D9800C87B0008002C014070B504460E46154655
:102DA800164B98420FD0B0F1804F0CD0A3F5943356
:102DB800984208D003F58063984204D041F2EB4171
:102DC8000F4801F09FFC66B1042E0AD0082E08D0E7
:102DD8000C2E06D0182E04D041F2EC41084801F020
:102DE80091FC012303FA06F2236A23EA0203236211
:102DF800236AB5401D43256270BD00BF002C014009
:102E0800C87B000838B504460D460368164A934245
:102E18000AD0B3F1804F07D0A2F59432934203D081
:102E280002F58062934206D155B1042D08D0082DD1
:102E380006D00C2D04D04FF488610C4801F062FCD8
:102E4800012229462068FFF7A7FF2368064A934214
:102E580003D15A6C42F400425A642268136843F062
:102E680001031360002038BD002C0140C87B000816
:102E780038B504460D4603682B4A93420FD0B3F188
:102E8800804F0CD0A2F59432934208D002F58062AC
:102E9800934204D040F28C61244801F033FC2B6843
:102EA80093B1102B10D0202B0ED0302B0CD0402BF0
:102EB8000AD0502B08D0602B06D0702B04D040F2DB
:102EC8008D611A4801F01EFC6B68802B05D023B178
:102ED80040F28E61154801F015FC94F83830012B4A
:102EE8001FD0012284F83820022384F83930216861
:102EF8004B6823F070034B60216848682B680343D4
:102F08004B6021688B6823F080038B602168886898
:102F18006B6803438B6084F83920002084F83800FC
:102F280038BD022038BD00BF002C0140F47B0008EA
:102F3800704700BF704700BF90F83930DBB2122BE2
:102F480001D0322B2AD18368B3F5805F0FD1036A91
:102F580002681B88C3F30803536003691BB9036A3B
:102F68000233036209E0036A0133036205E0026881
:102F7800036A591C01621B785360C38C013B9BB2E6
:102F8800C3846BB90268D36823F08003D3600268F6
:102F9800D36843F04003D360002070470220704795
:102FA800002070472DE9F84381464268834B9A42D6
:102FB80004D940F25271824801F0A4FBD9F80C30D0
:102FC8003BB1B3F5005F04D040F253717C4801F087
:102FD80099FBD9F8103053B1B3F5806F07D0B3F52A
:102FE800C06F04D040F25471754801F08BFBD9F8DA
:102FF800143033F00C0200D123B940F255717048F7
:1030080001F080FBD9F800100B6923F44052D9F87D
:103018000C3013430B61D9F80810D9F81030194354
:10302800D9F814301943D9F80000C26822F4B05313
:1030380023F00C030B43C360D9F800104B6923F449
:103048004072D9F8183013434B61D9F800505D4BE2
:103058009D4259D1FFF7A8F900EB800000EB8000F2
:10306800D9F80440A400B0FBF4F4574EA6FB04348E
:1030780064092401FFF798F900EB800000EB800059
:10308800D9F804309B00B0FBF3F7FFF78DF900EB9C
:10309800800000EB8000D9F804309B00B0FBF3F30C
:1030A800A6FB03235B094FF0640808FB13731B019D
:1030B8003233A6FB03235B0903F0F0031C44FFF73C
:1030C80073F900EB800000EB8000D9F804309B0016
:1030D800B0FBF3F7FFF768F900EB800000EB800026
:1030E800D9F804309B00B0FBF3F3A6FB03235B097C
:1030F80008FB13731B013233A6FB0323C3F34313EB
:103108001C44AC60BDE8F883FFF736F900EB80009B
:1031180000EB8000D9F80440A400B0FBF4F42A4E78
:10312800A6FB043464092401FFF726F900EB8000AC
:1031380000EB8000D9F804309B00B0FBF3F7FFF7F1
:103148001BF900EB800000EB8000D9F804309B00ED
:10315800B0FBF3F3A6FB03235B094FF0640808FBFD
:1031680013731B013233A6FB03235B0903F0F0033F
:103178001C44FFF701F900EB800000EB8000D9F850
:1031880004309B00B0FBF3F7FFF7F6F800EB800084
:1031980000EB8000D9F804309B00B0FBF3F3A6FBEA
:1031A80003235B0908FB13731B013233A6FB0323BC
:1031B800C3F343131C44AC60BDE8F88320AA440061
:1031C800247C0008003801401F85EB512DE9F041AF
:1031D80005460E4690461C46FDF7E4F80746B8F14A
:1031E800000F26D053E0B4F1FF3F22D024B1FDF701
:1031F800D9F8C01B84421CD22A68D36823F0800304
:10320800D3602A68D36823F02003D3602A68D36880
:1032180023F48073D3602A68536923F00103536150
:10322800012385F83930002385F838300320BDE8BC
:10323800F0812B681B6836EA0303D4D10020BDE86F
:10324800F081B4F1FF3F22D024B1FDF7ABF8C01BE9
:1032580084421CD22A68D36823F08003D3602A688A
:10326800D36823F02003D3602A68D36823F48073DB
:10327800D3602A68536923F001035361012385F859
:103288003930002385F838300320BDE8F0812B68F9
:103298001B6836EA0303D4D00020BDE8F08100BFE4
:1032A800002872D010B5044683690BB30368384A06
:1032B80093420CD0A2F57442934208D002F5806282
:1032C800934204D040F20711324801F01BFAA36977
:1032D800FBB1B3F5807F1CD0B3F5007F19D0B3F5EF
:1032E800407F16D04FF484712A4801F00BFA10E0A1
:1032F8000368274A93420CD0A2F57442934208D03F
:1033080002F58062934204D04FF48671214801F09F
:10331800F9F9A3683BB1B3F5805F04D04FF4877126
:103328001C4801F0EFF9E36923B140F20F11194885
:1033380001F0E8F994F8393013F0FF0F05D10023B4
:1033480084F83830204601F0ABFA022384F839308B
:103358002268D36823F40053D3602046FFF722FE87
:103368002268136923F4904313612268536923F098
:103378002A0353612268D36843F40053D3600020C2
:10338800E063012384F8393010BD0120704700BF85
:1033980000380140247C000870B504460D461E46DE
:1033A80090F83930DBB2012B01D0222B5AD1002DF5
:1033B8005AD0002A5AD094F83830012B58D001231B
:1033C80084F838300023E36394F83930DBB2222BD9
:1033D80003D1322384F8393002E0122384F83930DB
:1033E800A284E28423E0013BE384A368B3F5805F11
:1033F80012D13346002280212046FFF7E7FE00283D
:1034080038D122682B88C3F30803536023690BB9AA
:1034180002350CE001350AE03346002280212046BF
:10342800FFF7D4FE40BB23682A785A600135E38C45
:10343800002BD8D13346002240212046FFF7C6FE94
:103448000346D8B994F83920D2B2322A03D12222BD
:1034580084F8392002E0012284F83920002284F817
:1034680038200CE002230AE0012308E0012306E0EB
:10347800022304E0032302E0032300E003231846A9
:1034880070BD00BF704700BF08B50268D36823F05D
:103498004003D36090F83930DBB2322B03D12223BA
:1034A80080F8393002E0012380F83930FFF7EAFF6D
:1034B800002008BD704700BF08B590F83930DBB26E
:1034C800222B01D0322B4CD18368B3F5805F13D106
:1034D800836A026942B902685268C2F308021A8014
:1034E800836A0233836218E002685268D2B21A8093
:1034F800836A0133836210E0036933B9836A5A1C13
:103508008262026852681A7007E0826A531C8362FA
:1035180003685B6803F07F031370C38D013B9BB2A4
:10352800C38503BB0268D36823F02003D36090F8F7
:103538003930DBB2322B03D1122380F839300CE05A
:103548000268D36823F48073D3600268536923F058
:1035580001035361012380F83930FFF7ABFF0020E6
:1035680008BD022008BD002008BD00BF704700BF8D
:1035780010B582B0044603681968DA6811F0010FC3
:1035880006D002F480721AB1C26B42F00102C26323
:1035980019685A6902F0010211F0020F04D01AB139
:1035A800E16B41F00401E163196811F0040F04D0E4
:1035B8001AB1E16B41F00201E163196811F0080FDB
:1035C80004D01AB1E26B42F00802E2631A68DB68C1
:1035D80003F0200312F0200F03D013B12046FFF7A9
:1035E8006BFF23681A68DB6803F0800312F0800F12
:1035F80003D013B12046FFF79FFC23681A68DB68E5
:1036080003F0400312F0400F03D013B12046FFF738
:103618003BFFE36B5BB123681A6801925B68019317
:10362800019B012384F839302046FFF79FFF02B041
:1036380010BD00BF84B001A880E80E00002004B0CF
:10364800704700BFB0F840309BB243F43D43A0F848
:1036580040300020704700BFB0F8403023F4745366
:103668005B045B0CA0F840300020704700207047D6
:1036780084B010B402AC84E80E000123A0F84030F6
:103688000023A0F84030A0F84430A0F85030184685
:1036980010BC04B0704700BF10B4CB78032B35D8EA
:1036A800DFE803F002280F1B0A7830F822309BB2BB
:1036B80023F4EC4323F0700343F4007320F8223022
:1036C80024E00A7830F822309BB223F4EC4323F04C
:1036D80070039BB220F8223018E00A7830F82230C4
:1036E8009BB223F4EC4323F0700343F4C06320F847
:1036F80022300BE00A7830F822309BB223F4EC43F6
:1037080023F0700343F4806320F822300A7830F8FD
:10371800223023F0F0031B051B0D134343F4004331
:1037280043F0800320F822308B7A002B40F08B8006
:103738004B7883B3B0F850309BB20A7803EBC203DE
:1037480000EB43038A8852085200C3F800240A7821
:1037580030F8223003F040039BB25BB130F82230DE
:1037680023F0F0031B051B0D43F4004343F0C00393
:1037780020F822300A7830F822309BB223F4E04354
:1037880023F0400383F0200343F4004343F0800315
:1037980020F822301BE1B0F850309BB20A7803EBD6
:1037A800C203043300EB43038A8852085200C3F86B
:1037B8000024B0F850309BB20A7803EBC2030633FA
:1037C80000EB43030C693E2C0ED9C4F34F1214F0DE
:1037D8001F0F01D1013A92B26FEAC2626FEA5242F8
:1037E80092B2C3F800240AE0C4F34F0214F0010FA8
:1037F80001D0013292B2920292B2C3F800240A7840
:1038080030F8223003F480439BB25BB130F82230A9
:1038180023F0F0031B051B0D43F4404343F08003E2
:1038280020F822300A7830F822309BB223F4804303
:1038380023F0700383F4405343F4004343F08003C0
:1038480020F82230C3E00A7830F8223023F4F873E5
:103858001B051B0D43F4014343F0800320F822307D
:10386800B0F850309BB20A7803EBC20300EB430375
:10387800CA8852085200C3F80024B0F850309BB2EE
:103888000A7803EBC203043300EB43030A895208A6
:103898005200C3F800244B78002B4DD10A7830F839
:1038A800223003F480439BB25BB130F8223023F01E
:1038B800F0031B051B0D43F4404343F0800320F83D
:1038C80022300A7830F8223003F040039BB25BB113
:1038D80030F8223023F0F0031B051B0D43F400439E
:1038E80043F0C00320F822300A7830F8223023F061
:1038F800F0031B051B0D43F4004343F0C00320F8FD
:1039080022300C7830F824309BB223F4804323F023
:10391800700383F4405348F28002134320F82430A4
:10392800097830F821309BB223F4E04323F04003B8
:10393800134320F821304AE00A7830F8223003F4A3
:1039480080439BB25BB130F8223023F0F0031B05B3
:103958001B0D43F4404343F0800320F822300A78DB
:1039680030F8223003F040039BB25BB130F82230CC
:1039780023F0F0031B051B0D43F4004343F0C00381
:1039880020F822300A7830F8223023F0F0031B05A3
:103998001B0D43F4404343F0800320F822300C7899
:1039A80030F824309BB223F4E04323F0400348F27C
:1039B8008002134320F82430097830F821309BB274
:1039C80023F4804323F07003134320F821300020B0
:1039D80010BC70470A788AB930F822309BB223F4B9
:1039E800804323F0400383F4805383F0100343F4AF
:1039F800004343F0800320F8223020E04B787BB16D
:103A080030F822309BB223F4E04323F0400383F0E4
:103A1800100343F4004343F0800320F822300EE003
:103A280030F822309BB223F4804323F0700383F4F0
:103A3800805343F4004343F0800320F822300020F1
:103A4800704700BF4B781BB30A7830F8223003F078
:103A580040039BB25BB130F8223023F0F0031B0522
:103A68001B0D43F4004343F0C00320F822300A78CA
:103A780030F822309BB223F4E04323F0400383F074
:103A8800300343F4004343F0800320F8223022E05F
:103A98000A7830F8223003F480439BB25BB130F8E7
:103AA800223023F0F0031B051B0D43F4404343F081
:103AB800800320F822300A7830F822309BB223F4B1
:103AC800804323F0700383F4405343F4004343F0EE
:103AD800800320F822300020704700BF03460122EF
:103AE800A0F840200020A3F844000322A3F84020B7
:103AF800704700BF11B98023A0F84C3000207047F0
:103B08000020704700207047B0F8440080B270472A
:103B18000020704710B401335B1000EB420202F53D
:103B2800806207E00C78487844EA002422F8044BC5
:103B38000231013B002BF5D110BC704770B54A78B3
:103B4800012A40F0C2808E690B699E4203D9F61A99
:103B58008E611E4601E000238B610D4604468B7A78
:103B680083B9B3B28A884969FFF7D4FFB4F85030F3
:103B78009BB22A7803EBC203023304EB4303C3F876
:103B8800006491E0097830F8213003F040039BB2DB
:103B98009BB322BBB0F850309BB203EBC101063196
:103BA80000EB41013E2E0ED9C6F34F1316F01F0F3E
:103BB80001D1013B9BB26FEAC3636FEA53439BB2E7
:103BC800C1F8003417E0C6F34F0316F0010F01D017
:103BD80001339BB29B029BB2C1F800340BE0012A6F
:103BE80009D1B0F850309BB203EBC103023300EBAC
:103BF8004303C3F800642A8932E022BBB0F850308E
:103C08009BB203EBC101023100EB41013E2E0ED9FC
:103C1800C6F34F1316F01F0F01D1013B9BB26FEA99
:103C2800C3636FEA53439BB2C1F8003417E0C6F38D
:103C38004F0316F0010F01D001339BB29B029BB2D8
:103C4800C1F800340BE0012A09D1B0F850309BB21A
:103C580003EBC103023300EB4303C3F80064EA88B3
:103C6800B3B269692046FFF755FF6B786BB92A78BC
:103C780034F8223023F0F0031B051B0D43F40043F6
:103C880043F0C00324F822300EE0012B0CD12A782F
:103C980034F8223023F0F0031B051B0D43F4404396
:103CA80043F0800324F822302A7834F822309BB27B
:103CB80023F4E04323F0400383F0300343F400434C
:103CC80043F0800324F82230AAE08B690C69A342F0
:103CD80003D91B1B8B61234601E000248C618C7A7D
:103CE8002CBBB0F8502092B20C7802EBC40206321A
:103CF80000EB42023E2B0ED9C3F34F1413F01F0FF3
:103D080001D1013CA4B26FEAC4646FEA5444A4B27E
:103D1800C2F8004474E0C3F34F0413F0010F01D05C
:103D28000134A4B2A402A4B2C2F8004468E02ABBD9
:103D3800B0F8502092B20C7802EBC402023200EBC9
:103D480042023E2B0ED9C3F34F1413F01F0F01D1BB
:103D5800013CA4B26FEAC4646FEA5444A4B2C2F846
:103D6800004418E0C3F34F0413F0010F01D00134ED
:103D7800A4B2A402A4B2C2F800440CE0012A0AD1F9
:103D8800B0F8502092B20C7802EBC402023200EB79
:103D98004202C2F800344A782ABBB0F8502092B2E6
:103DA8000C7802EBC402063200EB42023E2B0ED91D
:103DB800C3F34F1413F01F0F01D1013CA4B26FEAF3
:103DC800C4646FEA5444A4B2C2F8004418E0C3F3D0
:103DD8004F0413F0010F01D00134A4B2A402A4B21D
:103DE800C2F800440CE0012A0AD1B0F8502092B27F
:103DF8000C7802EBC402023200EB4202C2F8003433
:103E08000A7830F822309BB223F4804323F0700301
:103E180083F4405343F4004343F0800320F82230F6
:103E2800002070BD01335B1000EB420202F5806296
:103E380004E0106821F8020B013B0432002BF8D192
:103E4800704700BFFEE700BF08B50D4B1B6813B9EC
:103E58000C4A0B4B1A600A4B1A68C31C23F0030365
:103E6800134409498B4206D903F082F90C230360F5
:103E78004FF0FF3008BD02490B60104608BD00BF77
:103E88003801002074220020004C00200123036028
:103E9800014B0B60704700BF040000200FB400B551
:103EA80083B004AB53F8042B01938021064803F038
:103EB800A3F9002803DD0146034800F039F803B0F0
:103EC8005DF804EB04B07047400100202DE9F04391
:103ED80085B004460F46435613BB042528462146A1
:103EE800ABBE04461FE03546102E28BF1025002320
:103EF80006E014F9011B04AA1A4402F8101C013345
:103F0800AB42F6D304AA1344002203F8102CE94666
:103F18004FF0040840464946ABBE8046761B00E099
:103F28000E46002EDFD1384605B0BDE8F08300BF4D
:103F380008B5FFF7CBFF08BD08B500F097F8024BAE
:103F4800024A9A6008BD00BF00ED00E000000008CA
:103F580008B500F0B1F808BDF8B504460D46174697
:103F68001E462648FFF79AFF21682548FFF796FF67
:103F780061682448FFF792FFA1682348FFF78EFF86
:103F8800E1682248FFF78AFF21692148FFF786FF89
:103F980061692048FFF782FFA1691F48FFF77EFF8C
:103FA800E1691E48FFF77AFF1D48FFF777FF2946AA
:103FB8001C48FFF773FF1C4CE16A1C48FFF76EFFB3
:103FC800216B1B48FFF76AFFE16B1A48FFF766FF92
:103FD80015F0800F03D039461748FFF75FFF15F437
:103FE800004F03D031461548FFF758FF1448FFF734
:103FF80055FF06991348FFF751FFF8BD547C000898
:10400800647C0008747C0008847C0008947C0008A8
:10401800A47C0008B47C0008C47C0008D47C000898
:10402800E47C0008F07C000800ED00E0007D00085A
:10403800107D0008207D0008307D0008407D0008C4
:10404800507D0008587D000883691A888A4207D184
:104058000268033A012A05D80233836101207047B8
:104068000020704700207047FEE700000F4B1A68D9
:1040780042F001021A6059680D4A0A405A601A68EB
:1040880022F0847222F480321A601A6822F48022A4
:104098001A605A6822F4FE025A604FF41F029A60AE
:1040A8004FF00062034B9A60704700BF0010024057
:1040B8000000FFF800ED00E01F4B5B6803F00C0305
:1040C800042B06D0082B08D03BBB1C4A1C4B1A609B
:1040D80026E01A4A1A4B1A6022E0174A53685268B7
:1040E800C3F38343023312F4803F05D1154A02FB20
:1040F80003F3134A136013E00F4A526812F4003FA7
:1041080005D0104A02FB03F30D4A136008E00B4A7E
:1041180002FB03F30A4A136002E0084A084B1A60DC
:10412800054B5B68C3F30313074AD15C044A136861
:10413800CB401360704700BF0010024000127A00A5
:104148000C00002000093D009C7D000870B58AB075
:10415800344B9A6942F010029A619A6902F010028F
:104168000192019A9A6942F020029A619A6902F0D2
:1041780020020292029A9A6942F004029A619A69AC
:1041880002F004020392039A9A6942F008029A61C3
:104198009A6902F008020492049ADA6942F002026B
:1041A800DA61DB6903F002030593059B4FF4604372
:1041B80006930325079506A91B48FCF78BFC48F2D4
:1041C800B0730693079506A91848FCF783FC069573
:1041D800174B079302260896164C06A92046FCF7AB
:1041E80079FC48F23C330693079506A92046FCF76C
:1041F80071FC4FF4E045069501230793099606A93B
:104208002046FCF767FC002229462046FCF7E2FD21
:10421800002206210846FCF723FB0620FCF762FB78
:104228000AB070BD001002400010014000080140B3
:1042380000001110000C014000B583B00E4B5A6904
:1042480042F001025A615B6903F001030193019B8B
:10425800002205210D20FCF703FB0D20FCF742FB93
:10426800002205211020FCF7FBFA1020FCF73AFB8E
:1042780003B05DF804FB00BF0010024008B500F071
:1042880011FC4FF0FF31074B186801F005F820B911
:104298004FF480510448FCF7B7FD0A2000F0E0FF16
:1042A800EFE700BFA8190020000C014000B583B05B
:1042B8000023ADF802300F4B186801F057FBA8B186
:1042C80000231A460DF102010A48006801F06EFA4F
:1042D800BDF802301A0A8DF8052002A901F8043D3C
:1042E80040F6FF7302220448FFF756F80A2000F050
:1042F800B7FFE0E7A4190020A818002008B5074B6D
:104308001B7833B1064B186800F0F8FF0022034B06
:104318001A70642000F0A4FFF1E700BFA019002084
:10432800A819002008B50268024B9A4201D1FCF78F
:1043380031F808BD002C0140FEE700BF00B585B08C
:104348001048114B036000238360C36043614FF43E
:104358006022C261436001230361FCF763F908B17D
:10436800FFF7EAFF0023019301220292039301A9B8
:104378000448FCF72BF808B1FFF7DEFF05B05DF83D
:1043880004FB00BF6C1900200024014008B5044854
:10439800044B0360FCF7EEFA08B1FFF7CDFF08BD48
:1043A800241900200030024008B50A480A4B03606F
:1043B8000A4B436000238360C3604FF4804202616C
:1043C80043618361C3610362FCF760FD08B1FFF7D5
:1043D800B3FF08BDE818002000540040A086010083
:1043E80000B58BB01848194B036000234360836005
:1043F8004FF4FA52C26003614361FEF733FB08B120
:10440800FFF79AFF00230893099308A90E48FEF7BF
:104418002FFD08B1FFF790FF602301934FF47A63F3
:10442800029300220392042305930DEB030106482F
:10443800FEF7BEFB08B1FFF77FFF034800F018FA4C
:104448000BB05DF804FB00BF2C19002000040040ED
:1044580008B50A480A4B03604FF4E1334360002370
:104468008360C36003610C2242618361C361FEF70C
:1044780017FF08B1FFF760FF08BD00BFB0190020A3
:104488000044004008B50A480A4B03604FF4E13382
:10449800436000238360C36003610C22426183612F
:1044A800C361FEF7FDFE08B1FFF746FF08BD00BF78
:1044B800A81800200048004000B595B001230A93D1
:1044C8004FF480330B9300220C9202221192129324
:1044D8004FF4E01313930AA8FDF71EFA08B1FFF78B
:1044E8002BFF0F23059302210691002307934FF416
:1044F80080620892099305A8FDF7E6FD08B1FFF769
:104508001BFF122301934FF40043039300230493EA
:1045180001A8FDF791FF08B1FFF70EFFFDF726FF91
:10452800084BA3FB00308009FCF7F2F90420FCF7E4
:1045380005FA00220F214FF0FF30FCF791F915B072
:104548005DF804FBD34D6210F0B599B00025304BEF
:104558001D70FBF70DFFFFF7AFFFFFF7F7FDFFF744
:104568006BFEFFF7EBFEFFF711FFFFF71DFFFFF7ED
:1045780037FFFFF76DFFFFF785FF18A840F8045DC8
:10458800012100F075FE234B1860234C12AE27461C
:104598000FCF0FC63B683360294612A800F042FED1
:1045A8001E4B18600DAE04F114070FCF0FC63B6801
:1045B800336029460DA800F035FE194B186008AE87
:1045C80004F128070FCF0FC63B683360294608A8B7
:1045D80000F028FE134B186003AE04F13C070FCF20
:1045E8000FC63B683360294603A800F01BFE0E4B3C
:1045F800186001AB503494E8030083E803002946AF
:10460800184600F0A5FE094B186000F005FEFEE70D
:10461800A0190020A8190020B47D00083418002033
:104628009C19002068190020AC190020A41900204A
:1046380000B589B0602301934FF47A630293002395
:104648000393042305930023ADF8023023E02B4B9A
:10465800186801F08BF9D8B9BDF80230029300232D
:104668001A460DF102012548006800F0C3FF002238
:1046780001A92348FEF79CFA08B1FFF75DFE002167
:104688001F48FEF7BFFBBDF80230C833ADF8023053
:10469800322000F0E5FDBDF80230B3F5FA5FD6D35D
:1046A8004FF4FA53ADF8023023E0144B186801F0C8
:1046B8005DF9D8B9BDF80230029300231A460DF10E
:1046C80002010E48006800F095FF002201A90C487D
:1046D800FEF76EFA08B1FFF72FFE00210848FEF733
:1046E80091FBBDF80230C83BADF80230322000F033
:1046F800B7FDBDF80230002BD7D1A4E7A4190020DC
:104708002C190020704700BF00B583B0204B9A6970
:1047180042F001029A619B6903F001030193019B36
:104728000320FCF77FF8002211466FF00B00FCF71E
:1047380097F8002211466FF00A00FCF791F8002262
:1047480011466FF00900FCF78BF8002211466FF054
:104758000400FCF785F8002211466FF00300FCF70F
:104768007FF800220F216FF00100FCF779F8002292
:104778000F214FF0FF30FCF773F8064A536823F017
:10478800E06343F00073536003B05DF804FB00BFBF
:10479800001002400000014002680D4B9A4216D1F9
:1047A80000B587B003F56C439A6942F400729A61C8
:1047B8009B6903F400730193019B03230293039302
:1047C80002A90448FCF786F907B05DF804FB7047B6
:1047D80000240140000801400268084B9A420CD1AD
:1047E80082B0A3F500535A6942F040025A615B69EE
:1047F80003F040030193019B02B070470030024070
:1048080002680E4B9A4218D100B587B0C0230293B4
:10481800122303930323059302A90948FCF75AF9C5
:10482800084BDA6942F40012DA61DB6903F4001319
:104838000193019B07B05DF804FB704700540040EA
:10484800000C0140001002400268084B9A420CD14B
:1048580082B003F50333DA6942F00202DA61DB69F8
:1048680003F002030193019B02B07047000400406B
:104878000268094B9A420DD100B585B040230093D8
:1048880002230193039369460448FCF723F905B012
:104898005DF804FB704700BF0004004000080140B9
:1048A80070B586B004460368364A934232D1364B17
:1048B800DA6942F40032DA61DB6903F40033009309
:1048C800009B0423029302230393032305932F4E93
:1048D80002A93046FCF7FEF8082302930025039549
:1048E80004950DEB03013046FCF7F4F82848294BF2
:1048F8000360456085608023C3600561456185610B
:10490800C561FCF755F808B1FFF716FD204B636346
:104918005C6235E0204A934232D11B4BDA6942F49B
:104928008022DA61DB6903F480230193019B4FF451
:10493800806302930223039303230593174E02A96E
:104948003046FCF7C7F84FF400630293002503953F
:10495800049502A93046FCF7BDF81148114B0360D5
:10496800456085608023C360056145618561C561D7
:10497800FCF71EF808B1FFF7DFFC094B63635C62C4
:1049880006B070BD0044004000100240000801401D
:10499800381800206C00024000480040000C01401C
:1049A800701800203000024000B589B0002201468E
:1049B8001920FBF755FF1920FBF794FF144B9A6950
:1049C80042F400629A619B6903F400630193019BBE
:1049D80002A903A8FDF700FDFDF7E6FC0D4BA3FBBC
:1049E80000239B0C013B0C480C4A026040F2E73262
:1049F800C2604360002303618360FDF7E5FF18B9D7
:104A08000548FDF7C5FE00E0012009B05DF804FB8C
:104A18000010024083DE1B43F0190020002C0140E7
:104A2800704700BFFEE700BFFEE700BFFEE700BF1C
:104A3800FEE700BF704700BF08B500F091FC08BD55
:104A480008B50120FCF7F0F908BD00BF08B5022041
:104A5800FCF7EAF908BD00BF0122014B1A70704744
:104A6800A019002008B50248FCF73AFE08BD00BFAF
:104A7800501C002008B50248FDF7B8FE08BD00BF6D
:104A8800F019002008B50248FEF772FD08BD00BF06
:104A9800B019002008B50248FEF76AFD08BD00BF3E
:104AA800A818002010B5094C00220949204601F039
:104AB80011FC0849204601F025FC0749204602F070
:104AC80051FB204601F026FC10BD00BF2C1A002027
:104AD800100000208C0000204400002002680E4BCB
:104AE8009A4217D100B583B003F5DA33DA6942F494
:104AF8000002DA61DB6903F400030193019B0022E1
:104B080011461420FBF7ACFE1420FBF7EBFE03B0B4
:104B18005DF804FB704700BF005C004008B500F575
:104B28007B71D0F81C0401F01DFC08BD08B500EB32
:104B38004113D3F81C22D0F81C0401F041FC08BD35
:104B480008B500EB4113DA6BD0F81C0401F06CFCDB
:104B580008BD00BF08B5D0F81C0401F0EFFC08BD83
:104B680010B504460121D0F81C0401F0D3FCD4F898
:104B78001C0401F0AFFC10BD10B50446D0F81C04AD
:104B880001F0CCFCA36923B1024A136943F0060380
:104B9800136110BD00ED00E008B5D0F81C0401F069
:104BA800C7FC08BD10B504461248C0F81C44C4F838
:104BB8002002114B03600823436002238360032310
:104BC800C36000238361C3610362FCF71BFA08B169
:104BD800FFF7B2FB182300221146D4F82002FCF795
:104BE8007FFE582300228021D4F82002FCF778FEAB
:104BF800002010BD501C0020005C004008B5D0F813
:104C08002002FCF77BFA002008BD00BF08B5D0F8E9
:104C18002002FCF78BFA002008BD00BF10B51C4627
:104C280013462246D0F82002FCF7ACFA002010BD4B
:104C380008B5D0F82002FCF7FDFD002008BD00BF34
:104C480008B5D0F82002FCF723FE002008BD00BFFD
:104C5800D0F8202211F0800F06D001F07F0302EB7C
:104C6800431191F82A00704701F07F0102EB4111CE
:104C780091F80A02704700BF08B5D0F82002FCF787
:104C88006DFA002008BD00BF08B5D0F82002FCF777
:104C9800CFFA002008BD00BF08B5D0F82002FCF705
:104CA8009BFA002008BD00BF00487047C0010020E3
:104CB800704700BF704700BF12230B800048704741
:104CC8003000002004230B80004870472C0000208F
:104CD80008B50A4620B90549054801F0A1FE03E0D8
:104CE8000249034801F09CFE004808BD70200020DE
:104CF800407E000810B5044C0A462146034801F0DE
:104D08008FFE204610BD00BF70200020607E000886
:104D180008B50A4620B90549054801F081FE03E0B7
:104D28000249034801F07CFE004808BD70200020BD
:104D3800747E000808B50A4620B90549054801F0FF
:104D48006FFE03E00249034801F06AFE004808BD0F
:104D580070200020847E000808B50A4620B905495D
:104D6800054801F05DFE03E00249034801F058FEE2
:104D7800004808BD70200020907E00080020704781
:104D880000207047002070470020704700207047BF
:104D980000207047124A12F0070F07D0D11D21F0EA
:104DA8000701C1F5805313440A4601E04FF48053CC
:104DB8000C480260002141601344083B23F00703BC
:104DC8000948036059601960991A51601360074BCC
:104DD8001960074B19604FF00042064B1A60704784
:104DE800EC050020E4050020E0050020F015002077
:104DF800DC050020EC150020124A00E01A46136872
:104E08008342FBD310B451685418A04203D14068C0
:104E180001445160104641684418A3420CD10A4C21
:104E28002468A34206D05B681944416013681B6874
:104E3800036002E0046000E00360904200D010606C
:104E480010BC7047E4050020E005002070B504465A
:104E580000F014FF304B1B680BB9FFF79BFF2F4B7B
:104E68001B681C4247D164B1083414F0070F08D0FE
:104E780024F00704083404F0070313B100F0C2F863
:104E8800FEE7002C39D0264B1B689C4237D8254BAF
:104E98001D6801E02B4615466A68944202D92A68C3
:104EA800002AF7D11C4A126895422AD01E68083693
:104EB8002A681A606B681B1B102B0AD9281910F076
:104EC800070F02D000F09EF8FEE743606C60FFF722
:104ED80093FF6A6812490B689B1A0B6012490968AC
:104EE8008B4201D210490B600C4B1B681A436A6055
:104EF80000232B6006E0002604E0002602E00026DE
:104F080000E0002600F050FF16F0070F02D000F076
:104F180079F8FEE7304670BDE0050020EC1500206A
:104F2800DC050020E4050020F015002038B338B572
:104F38000446A0F1080550F8043C114A126813EA27
:104F4800020002D100F05EF8FEE754F8081C11B127
:104F580000F058F8FEE788B181B923EA020344F863
:104F6800043C00F08BFE54F8043C064A11680B44DC
:104F780013602846FFF740FF00F016FF38BD704762
:104F8800EC150020DC05002006480068006880F366
:104F9800088862B661B6BFF34F8FBFF36F8F00DF2B
:104FA80000BF000008ED00E04FF0807340F8043CBB
:104FB80040F8081C034B40F80C3C40F8202C4038C3
:104FC800704700BF1D500008074B19680868B0E813
:104FD800F00F80F30988BFF36F8F4FF0000080F364
:104FE80011884EF00D0E7047B41600204FF0805215
:104FF800034B1A60BFF34F8FBFF36F8F704700BF2B
:1050080004ED00E0EFF311804FF0500181F31188B7
:105018007047002008B5054B1B68B3F1FF3F02D06D
:10502800FFF7F0FFFEE7FFF7EDFFFEE76000002067
:1050380008B5FFF7E7FF094A136801331360BFF3A8
:105048004F8FBFF36F8F012B07D1054B1B6813F0F0
:10505800FF0F02D0FFF7D6FFFEE708BD6000002073
:1050680004ED00E080F31188704700BF08B5074BD6
:105078001B6813B9FFF7C6FFFEE7013B034A13603D
:1050880013B90020FFF7EEFF08BD00BF6000002045
:10509800EFF30980BFF36F8F0D4B1A6820E9F00F0B
:1050A80010602DE908404FF0500080F3118800F09F
:1050B80051FF4FF0000080F31188BDE808401968DF
:1050C8000868B0E8F00F80F30988BFF36F8F704766
:1050D800B416002008B5FFF795FF00F0D7FD18B10A
:1050E8004FF08052024B1A600020FFF7BBFF08BD4B
:1050F80004ED00E0064B1B68064AA2FB03239B094C
:10510800013B054A13600722044B1A60704700BF31
:105118000C000020D34D621014E000E010E000E025
:1051280000B583B01F4B1A78D2B20192FF221A70D1
:105138001B78DBB28DF803309DF8033003F0500381
:10514800194A13700722194B1A6009E0174A1368A5
:10515800013B13609DF803305B00DBB28DF8033030
:105168009DF8033013F0800FF0D1104A13681B022A
:1051780003F4E0631360019BDBB20A4A13700C4B23
:105188001A6842F470021A601A6842F070421A6093
:10519800FFF7B0FF0022074B1A60FFF7F5FEFFF795
:1051A80039FF00BF00E400E0F4150020F8150020E6
:1051B80020ED00E06000002008B5EFF305830F2B19
:1051C80009D90B4A9B5CDBB20A4A1278934202D295
:1051D800FFF718FFFEE7084B1B6803F4E063074A74
:1051E8001268934202D9FFF70DFFFEE708BD00BF22
:1051F800F0E300E0F41500200CED00E0F8150020C5
:10520800842801D00330704700207047EFF30580F1
:10521800003018BF0120704708B500F001FD0020DC
:1052280008BD00BFF0B587B00F4644680568066939
:10523800B0F90800FFF7E4FF00230393029305ABDE
:10524800019300903B46B2B22946204600F062FC2A
:10525800012801D1059800E0002007B0F0BD00BF8B
:1052680008B508B90120FFE700F00CFE002008BDD2
:1052780001290ED110B503220021012000F092F976
:10528800044640B100231A46194600F0B3F92046F7
:1052980010BD0020704710BD30B583B000230193C6
:1052A80018B30C460546B1F1FF3F02D009B101B968
:1052B8000124FFF7ABFF70B101AA0021284600F0D6
:1052C80013FB012813D10198A0B14FF080520A4B6B
:1052D8001A6000200EE0002322461946284600F0F6
:1052E80065FA012805D0FF2004E0802002E0FF20B5
:1052F80000E0002003B030BD04ED00E010B582B03E
:10530800044600230193FFF781FF68B101A92046F5
:1053180000F006FA012811D1019B8BB14FF08052A1
:105328000A4B1A6000200EE000231A461946204650
:1053380000F060F9012805D1002004E0FF2002E018
:10534800002000E0FF2002B010BD00BF04ED00E027
:1053580008B500224168006800F024F908BD00BFC4
:1053680008B500F0F7FE012801D0FFF7B3FE08BD2D
:1053780000F1080343604FF0FF328260C3600361AD
:1053880000230360704700BF00230361704700BF1C
:1053980043684B609A688A609A68516099600861AE
:1053A800036801330360704730B40D68B5F1FF3FFF
:1053B80001D1026907E000F1080200E01A465368CB
:1053C8001C68A542FAD253684B6099608A605160A4
:1053D800086103680133036030BC704703694268A1
:1053E800816891608268416851605A68904201D131
:1053F80082685A6000220261186801381860704794
:1054080010B50446FFF714FEA26BE36B9A4201D174
:10541800012400E00024FFF729FE204610BD00BF4C
:1054280010B50446FFF704FEA36B0BB9012400E096
:105438000024FFF71BFE204610BD00BF38B5044608
:105448001546026C3AB903685BBB406800F0E6FE9B
:10545800002363602CE06DB9806801F08FFEA268BC
:10546800236C1344A360626893421CD32368A3602F
:1054780000201DE0C06801F081FE236C5B42E268F9
:105488001A44E26021688A4202D262681344E360E7
:10549800022D0AD1A36B53B1A36B013BA363002078
:1054A80006E0002004E0002002E0002000E00020E8
:1054B800A36B0133A36338BD026C72B110B5034608
:1054C800C4681444C4604068844201D31868D86032
:1054D8000846D96801F052FE10BD704710B5044661
:1054E800FFF7A6FD0BE0636A63B104F1240000F046
:1054F800A7FD08B100F028FEA36C013BA364A36CD0
:10550800002BF0DC4FF0FF33A364FFF7AFFDFFF78C
:105518008FFD0BE0236963B104F1100000F090FDEA
:1055280008B100F011FE636C013B6364636C002BEF
:10553800F0DC4FF0FF336364FFF798FD10BD00BF48
:1055480038B510B9FFF75EFDFEE70D460446FFF7D4
:105558006FFD2168E26B236C03FB02106060002082
:10556800A063A160013A02FB0313E3604FF0FF332D
:105578006364A36455B9236983B104F1100000F092
:105588005FFD01280AD1FFF731FD07E004F11000A3
:10559800FFF7EEFE04F12400FFF7EAFEFFF766FDD1
:1055A800012038BDF8B510B9FFF72CFDFEE70D4610
:1055B8001746064619B101FB00F0013000E0002053
:1055C8005430FFF743FC044668B10DB9206002E08F
:1055D80000F154030360E663256401212046FFF7C8
:1055E800AFFF84F8507014B9FFF70CFDFEE72046B2
:1055F800F8BD00BFF0B585B0019210B9FFF702FD04
:10560800FEE70E461D46044619B9036C1BB9012373
:1056180002E0012300E0002313B9FFF7F3FCFEE7E3
:10562800022D03D1E36B012B02D102E0012300E03C
:10563800002313B9FFF7E6FCFEE700F08BFD18B96D
:10564800019B1BB9012302E0012300E0002313B9E9
:10565800FFF7D8FCFEE70027FFF7EAFCA26BE36B35
:105668009A4201D3022D16D12A4631462046FFF729
:10567800E5FE636A43B104F1240000F0E1FC01286F
:1056880005D1FFF7B3FC02E008B1FFF7AFFCFFF765
:10569800EDFC012042E0019B1BB9FFF7E7FC00206D
:1056A8003CE01FB902A800F00BFD0127FFF7DEFC64
:1056B80000F0E4FAFFF7BCFC636CB3F1FF3F01D1E3
:1056C80000236364A36CB3F1FF3F01D10023A364FB
:1056D800FFF7CCFC01A902A800F002FDC0B92046E2
:1056E800FFF78EFE70B1019904F1100000F076FC0E
:1056F8002046FFF7F3FE00F057FB0028ACD1FFF778
:1057080075FCA9E72046FFF7E9FE00F04DFBA3E78B
:105718002046FFF7E3FE00F047FB002005B0F0BD90
:1057280070B510B9FFF76EFCFEE70E460446036C31
:1057380013B1FFF767FCFEE703681BB943681BB9A1
:10574800012302E0012300E0002313B9FFF75AFC0C
:10575800FEE7FFF731FDFFF755FC0546A26BE36B4B
:105768009A4216D2A36B0133A363A36CB3F1FF3F34
:105778000AD1636A7BB104F1240000F061FC60B1D6
:105788006EB1012434600BE0A36C0133A3640124DF
:1057980006E0002404E0012402E0012400E00124E2
:1057A8002846FFF75FFC204670BD00BFF0B585B006
:1057B800019210B9FFF726FCFEE70D461F46044686
:1057C80019B9036C1BB9012302E0012300E000238F
:1057D80013B9FFF717FCFEE700F0BCFC18B9019BF2
:1057E8001BB9012302E0012300E0002313B9FFF7EE
:1057F80009FCFEE70026FFF71BFCA36B33B3E66842
:1058080029462046FFF758FE97B9A36B013BA363CF
:10581800236813B900F050FD6060236993B104F167
:10582800100000F00DFC01280CD1FFF7DFFB09E0A8
:10583800E660636A33B104F1240000F001FC08B1AA
:10584800FFF7D4FBFFF712FC01204BE0019B1BB9CB
:10585800FFF70CFC002045E01EB902A800F030FC60
:105868000126FFF703FC00F009FAFFF7E1FB636C80
:10587800B3F1FF3F01D100236364A36CB3F1FF3F91
:1058880001D10023A364FFF7F1FB01A902A800F0EE
:1058980027FC08BB2046FFF7C3FDB8B1236833B91E
:1058A800FFF7C6FB606800F065FCFFF7DFFB0199B6
:1058B80004F1240000F092FB2046FFF70FFE00F0F1
:1058C80073FA002897D1FFF791FB94E72046FFF77A
:1058D80005FE00F069FA8EE72046FFF7FFFD00F0AD
:1058E80063FA002005B0F0BDF8B510B9FFF78AFBE0
:1058F800FEE70F461646044619B9036C1BB9012387
:1059080002E0012300E0002313B9FFF77BFBFEE769
:10591800FFF752FCFFF776FB0546A36BD3B1394678
:105928002046FFF7C9FDA36B013BA363636CB3F18A
:10593800FF3F0AD123697BB104F1100000F080FB1E
:1059480060B16EB1012434600BE0636C01336364B1
:10595800012406E0002404E0012402E0012400E020
:1059680001242846FFF77EFB2046F8BD10B510B984
:10597800FFF748FBFEE70446FFF75AFBA46BFFF767
:1059880075FB204610BD00BF0A4B1B681B680BB98E
:10599800012300E0002323B14FF0FF32064B1A60C9
:1059A8007047044B1B68DB68DB685A68024B1A6057
:1059B800704700BFFC150020B816002010B504463B
:1059C800006BFFF7B3FA2046FFF7B0FA10BD00BF2F
:1059D80070B506460C4619B98000FFF737FA044639
:1059E80054B15C20FFF732FA054608B1046304E0BD
:1059F8002046FFF79BFA00E0002525B1B200A5215B
:105A0800286B01F0C6FB284670BD00BF70B5044680
:105A18001546002306E0C856E21882F83400CA5634
:105A280012B101330F2BF6D9002384F84330062D29
:105A380000D90625E562E56400262665201DFFF7E6
:105A4800A3FC04F11800FFF79FFC2461C5F10705CA
:105A5800A5616462666584F8586070BD38B5002435
:105A680006E014200E4B00FB0430FFF781FC0134E4
:105A7800062CF6D90B4D2846FFF77AFC0A4C20462F
:105A8800FFF776FC0948FFF773FC0948FFF770FC3D
:105A98000848FFF76DFC084B1D60084B1C6038BDBB
:105AA80020160020E0160020F4160020C81600205A
:105AB8000816002008170020FC150020C416002036
:105AC80010B50F4B1B6858600E4B1B68984207D2E5
