:020000040800F2
:100000000050002021020008E5490008E9490008E5
:10001000ED490008F1490008F5490008000000001A
:10002000000000000000000000000000694F000810
:10003000F94900080000000031500008FD4900089F
:10004000AD400008AD400008AD400008AD400008DC
:10005000AD400008AD400008AD400008AD400008CC
:10006000AD400008AD400008AD400008AD400008BC
:10007000AD400008054A0008AD400008AD4000084A
:10008000154A0008AD400008AD400008AD4000082A
:10009000254A0008AD400008AD400008AD4000080A
:1000A000AD400008354A0008AD400008AD400008EA
:1000B000AD400008AD400008AD400008AD4000086C
:1000C000AD400008AD400008AD400008AD4000085C
:1000D000AD400008AD400008AD400008AD4000084C
:1000E000AD400008AD400008AD4000080000000031
:1000F0000000000000000000000000000000000000
:1001000000000000000000005FF808F100B583B0B7
:1001100003F034FF304B314A1360314A1360314BE6
:10012000314A03E011681960043304322F498B42CD
:10013000F8D32A4B1A682E4B9A4204D1284B1A68DE
:100140002C4B9A4200D0FEE7234B2B4A13602B4ADC
:1001500013602B4B02E000221A600433294A9342B9
:10016000F9D3254B1B6813B9244B1B6803B1FEE779
:1001700003F010FF694601A803F0AAFE224C234BAE
:100180001C1BA410002504E01F4B53F82530984792
:100190000135AC42F8DC1E4C1E4B1C1BA410002584
:1001A00004E01B4B53F8253098470135AC42F8DC8E
:1001B0000099019804F0C8F90546174C174B1C1B11
:1001C000A41004E0013C144B53F824309847002C51
:1001D000F8DC284603F058FEBABADECA0000002058
:1001E0002C010020000000206C7C00083001002061
:1001F000785634123254769830010020641E002064
:1002000030010020681E00207803000878030008F1
:1002100078030008780300087803000878030008D2
:1002200008B5FFF773FF00BF00BEFEE71EF0040F26
:100230000CBFEFF30880EFF309807146414A104785
:100240002DE9F04182B004468846134B5E6B9F6BEC
:100250009D6A1B6B13F0020F0DD00F4BDB6A002B56
:1002600009DA4BF6AB6103F011FF20B14FF0004209
:10027000094BDA620CE0094803F032FECDF8008049
:100280003B4632462946204603F088FE00BEFEE784
:1002900002B0BDE8F08100BF00ED00E0C47A0008C4
:1002A00000BEFEE71EF0040F0CBFEFF30880EFF373
:1002B00009807146244A10472DE9F04182B0044676
:1002C0008846084B5E6B9F6B9D6A074803F008FEEB
:1002D000CDF800803B4632462946204603F05EFEBC
:1002E00000BEFEE700ED00E0D47A00081EF0040F27
:1002F0000CBFEFF30880EFF309807146134A1047F3
:100300002DE9F04182B004468846084B5E6B9F6B36
:100310009D6A074803F0E4FDCDF800803B46324675
:100320002946204603F03AFE00BEFEE700ED00E05D
:10033000E07A000800BEFEE700BEFEE700BEFEE772
:100340007047000041020008B902000801030008DC
:100350006C7C000800000020300100206C7C00084C
:10036000000000000000000030010020681E002096
:08037000000000000000000085
:1003780008B5074A136843F010031360032000F020
:1003880051FA002004F0EEFA04F09CF9002008BDB0
:1003980000200240024A136801331360704700BF0F
:1003A80034010020014B1868704700BF3401002059
:1003B80010B582B00190FFF7F5FF0446FFF7F2FF92
:1003C800001B019B9842F9D302B010BDF0B583B071
:1003D80005460C460023019303687A4A934208D0E5
:1003E80002F58062934204D040F2AC61764804F092
:1003F80067F92368112B04D940F2AD61724804F003
:100408005FF96368013B0F2B04D940F2AE616E4877
:1004180004F056F9A368072B04D940F2AF616A4883
:1004280004F04EF995F82430012B00F0C780012321
:1004380085F824306368062B1BD82E68706B4FF440
:10044800787292FAA2F1B1FA81F1013B03FB01F152
:100458001F2707FA01F120EA0101206892FAA2F2A7
:10046800B2FA82F203FB02F200FA02F20A43726362
:1004780037E00C2B1AD82E68376B4FF4787292FA43
:10048800A2F0B0FA80F0073B03FB00F01F2101FA4D
:1004980000F027EA0000216892FAA2F2B2FA82F28A
:1004A80003FB02F39940014331631AE02E68F16AB5
:1004B8004FF4787292FAA2F0B0FA80F00D3B03FB89
:1004C80000F01F2707FA00F021EA0000216892FADD
:1004D800A2F2B2FA82F203FB02F301FA03F3034336
:1004E800F362206809281BD92E68F768382292FA27
:1004F800A2F1B1FA81F1A0F10A0303FB01F107208F
:1005080000FA01F127EA0101A06892FAA2F2B2FA10
:1005180082F203FB02F300FA03F20A43F26018E0E6
:100528002F683E69382292FAA2F1B1FA81F100FBF4
:1005380001F1072303FA01F126EA0101A66892FAFC
:10054800A2F2B2FA82F200FB02F306FA03F30B43BB
:100558003B612368103B012B27D82B68194A93422B
:100568001DD19A6812F4000F21D19A6842F4000252
:100578009A602368102B1CD1144B1B68144AA2FBE9
:1005880003239B0C03EB83035A00019202E0019BB7
:10059800013B0193019B002BF9D100200AE0AB6AD3
:1005A80043F02003AB62012004E0002002E00020B9
:1005B80000E00020002385F8243000E0022003B08A
:1005C800F0BD00BF00240140707700080C00002037
:1005D80083DE1B4338B503689A6812F0010F1ED0FA
:1005E80004469A6822F001029A60FFF7DBFE05468E
:1005F8000EE0FFF7D7FE401B022809D9A36A43F093
:100608001003A362E36A43F00103E362012038BDEB
:1006180023689B6813F0010FEBD1002038BD002040
:1006280038BD00BF002800F0F28038B504460368E2
:10063800784A934208D002F58062934204D04FF47E
:10064800C271754804F03CF863683BB1B3F5006FBC
:1006580004D040F28511704804F032F8A3683BB129
:10066800B3F5807F04D04FF4C3716B4804F028F8C9
:10067800E368012B04D940F28711674804F020F899
:10068800E369B3B1B3F5003F13D0B3F5C02F10D071
:10069800B3F5002F0DD0B3F5202F0AD0B3F5402FB6
:1006A80007D0B3F5602F04D04FF4C4715A4804F052
:1006B80007F8A368DBB12369013B0F2B04D94FF47A
:1006C800C671554803F0FCFF6369012B04D940F259
:1006D8008D11514803F0F4FF636943B1A369013BED
:1006E800072B04D94FF4C8714B4803F0E9FFA36AFC
:1006F8002BB9E36284F82430204604F02BF8204616
:10070800FFF768FFA36A13F0100F7AD1002878D199
:10071800A36A23F4885323F0020343F00203A3627D
:100728006268E3691A43E168022393FAA3F3B3FA10
:1007380083F301FA03F31343A268B2F5807F04D070
:10074800012A05D14FF4807503E04FF4807500E06D
:1007580000256269012A15D161B9A269013A4FF4ED
:10076800604191FAA1F1B1FA81F18A4042F4006244
:10077800154307E0A26A42F02002A262E26A42F050
:100788000102E26221684A6822F469422A434A6007
:1007980021688D68214A2A401A438A60A268B2F506
:1007A800807F01D0012A0AD12269013A4FF47001F1
:1007B80091FAA1F1B1FA81F102FA01F100E0002108
:1007C8002568EA6A22F470020A43EA62226891689C
:1007D800134A0A40934208D10023E362A36A23F034
:1007E800030343F00103A36238BDA36A23F0120395
:1007F80043F01003A362E36A43F00103E3620120BC
:1008080038BDA36A43F01003A362012038BD01205C
:10081800704700BF0024014070770008FDF7E1FF32
:10082800FE0E1FFF10B50446C31E042B03D9BA21C0
:10083800094803F045FF094AD36823F4E0631B0421
:100848001B0C240204F4E064234343F0BF6343F425
:100858000033D36010BD00BF9C77000800ED00E0B6
:1008680070B504460E4615460F2A03D9D2211A48F8
:1008780003F026FF0F2E03D9D321174803F020FFDA
:10088800164BDA68C2F30222C2F10701042928BF15
:100898000421131D062B01D9033A00E0002201238D
:1008A80003FA01F101393140914003FA02F2013AA9
:1008B8002A400A43002C06DA04F00F041201D2B2CF
:1008C800074B1A5570BD1201D2B204F1604404F509
:1008D800614484F8002370BD9C77000800ED00E0B7
:1008E80014ED00E010B5041E03DAE621064803F013
:1008F800E7FE620904F01F04012303FA04F4034B22
:1009080043F8224010BD00BF9C77000800E100E0DA
:100918000138B0F1807F0AD2064B5860F021064AB0
:1009280082F823100020986007221A60704701207F
:10093800704700BF10E000E000ED00E010B504468D
:10094800042805D020B14FF4DF71084803F0B8FE41
:10095800042C05D1064A136843F00403136010BD44
:10096800034A136823F00403136010BD9C77000842
:1009780010E000E0B0B110B5044602680A4B9A4294
:1009880003D07921094803F09BFE637913F0FF0F28
:1009980004D100232371204603F0FCFE0123637178
:1009A800002010BD0120704700300240CC770008BD
:1009B800002800F0898010B504460368434A934232
:1009C80015D01432934212D0143293420FD01432FD
:1009D80093420CD01432934209D01432934206D079
:1009E8001432934203D0B521394803F069FE636895
:1009F80043B1102B06D0B3F5804F03D0B62134484D
:100A080003F05EFEA368402B04D01BB1B721304829
:100A180003F056FEE368802B04D01BB1B8212C48A4
:100A280003F04EFE23694BB1B3F5807F06D0B3F5D2
:100A3800007F03D0B921264803F042FE63694BB119
:100A4800B3F5806F06D0B3F5006F03D0BA21204804
:100A580003F036FEA3692BB1202B03D0BB211C4821
:100A680003F02EFEE36963B1B3F5805F09D0B3F5F7
:100A7800005F06D0B3F5405F03D0BC21144803F0F3
:100A88001FFE94F821300BB984F82030022384F833
:100A980021302068036823F47F5222F03002616815
:100AA800A3681943E3681943236919436369194320
:100AB800A3691943E3690B43134303600020606390
:100AC800012384F8213010BD01207047080002403E
:100AD800F877000810B50446984B1A6803689849D7
:100AE8008B4211D014318B4210D014318B420FD06D
:100AF80014318B420FD014318B420FD014318B42FA
:100B08000FD14FF400010EE008210CE080210AE02B
:100B18004FF4006107E04FF4004104E04FF4002176
:100B280001E04FF0006111423CD01A6812F0080F42
:100B380038D01A6822F008021A602368804A934263
:100B480011D01432934210D0143293420FD0143281
:100B580093420FD0143293420FD0143293420FD1E4
:100B68004FF400020EE008220CE080220AE04FF465
:100B7800006207E04FF4004204E04FF4002201E075
:100B88004FF000626D4B5A60636B43F0010363637F
:100B9800042384F82130002384F82030236B0BB120
:100BA80020469847654B1A68236865498B4211D0DF
:100BB80014318B4210D014318B420FD014318B4238
:100BC8000FD014318B420FD014318B420FD14FF418
:100BD80080010EE004210CE040210AE04FF480611E
:100BE80007E04FF4804104E04FF4802101E04FF02A
:100BF8008061114239D01A6812F0040F35D01A6892
:100C080012F0200F03D11A6822F004021A60236838
:100C18004B4A934211D01432934210D0143293426B
:100C28000FD0143293420FD0143293420FD01432A3
:100C380093420FD14FF480020EE004220CE04022D0
:100C48000AE04FF4806207E04FF4804204E04FF47A
:100C5800802201E04FF08062384B5A60112384F8FB
:100C68002130E36A0BB120469847344B1A68236851
:100C780033498B4211D014318B4210D014318B423E
:100C88000FD014318B420FD014318B420FD0143156
:100C98008B420FD14FF400110EE002210CE020210D
:100CA8000AE04FF4007107E04FF4005104E04FF4FC
:100CB800003101E04FF0007111423ED01A6812F085
:100CC800020F3AD01A6812F0200F03D11A6822F0E6
:100CD80002021A6023681A4A934211D014329342CE
:100CE80010D0143293420FD0143293420FD01432E2
:100CF80093420FD0143293420FD14FF400120EE0FA
:100D080002220CE020220AE04FF4007207E04FF4C0
:100D1800005204E04FF4003201E04FF00072074B3C
:100D28005A60636B6363012384F82130002384F8DD
:100D38002030A36A0BB12046984710BD000002403E
:100D4800080002402DE9F04383B080460F46AE4BC1
:100D5800984213D003F5806398420FD003F580635F
:100D680098420BD003F58063984207D003F580635F
:100D7800984203D0CF21A54803F0A2FC3B881BB9B9
:100D8800D021A24803F09CFC7B68012B22D9112BAF
:100D980020D0022B1ED0122B1CD09D4A934219D072
:100DA80002F58012934215D002F58012934211D0B9
:100DB800A2F5F81293420DD002F58012934209D0A1
:100DC80002F58012934205D0032B03D0D1218F481E
:100DD80003F076FC4FF000094E462BE10125B540A3
:100DE8003C682C40A54240F02481874B984513D09D
:100DF80003F5806398450FD003F5806398450BD0C1
:100E080003F58063984507D003F58063984503D0C0
:100E1800DF217E4803F054FC7B68122B49D00CD8A4
:100E2800022B3AD004D8002B4FD0012B1ED067E0FC
:100E3800032B60D0112B24D062E0764A934244D031
:100E480008D8A2F5801293423FD002F5803293422F
:100E580056D13AE0704A934237D002F58032934235
:100E680033D0A2F5801293424AD12EE0FB68013BB1
:100E7800022B03D9E721654803F022FCD7F80C9030
:100E88003EE0FB68013B022B03D9EE215F4803F0EB
:100E980017FCFB6803F1040932E0FB68013B022BF5
:100EA80003D9F521594803F00BFCFB6803F1080945
:100EB80026E0FB68013B022B03D9FC21534803F0D1
:100EC800FFFBFB6803F10C091AE0BB68022B04D98D
:100ED80040F209114D4803F0F3FBBB6873B1012BD5
:100EE80004D1C8F810504FF0080909E0C8F81450A8
:100EF8004FF0080904E04FF0000901E04FF0040941
:100F0800FF2C01D8404601E008F10400FF2C01D86D
:100F1800B30002E0A6F108039B0001680F229A4083
:100F280021EA020209FA03F3134303607B6813F012
:100F3800805F7ED0394B9A6942F001029A619B69C1
:100F480003F001030193019BB1088A1C344B53F849
:100F5800222006F003039B000F20984022EA00009D
:100F6800294A90450DD002F5806290450BD002F5D4
:100F78008062904509D002F58062904507D103222E
:100F880006E0002204E0012202E0022200E004223E
:100F980002FA03F303430231214A42F821307B6805
:100FA80013F4803F05D002F5806213682343136071
:100FB80004E01C4A136823EA040313607B6813F4F3
:100FC800003F04D0174A53682343536004E0154A8E
:100FD800536823EA040353607B6813F4801F04D02A
:100FE800104A93682343936004E00E4A936823EA07
:100FF800040393607B6813F4001F15D0094AD36873
:101008001C43D46015E000BF0008014024780008A4
:1010180000001110000021100000311000100240E3
:101028000000014000040140054AD36823EA040493
:10103800D46001360F2E7FF6D1AE03B0BDE8F08341
:101048000004014070B5064615460C4621B94FF418
:10105800F271084803F034FB012D04D940F2E51180
:10106800044803F02DFB0DB1346170BD24043461D4
:1010780070BD00BF2478000838B504460D4621B974
:101088004FF4FD71034803F01BFBE1686940E16020
:1010980038BD00BF247800084368114A934208D835
:1010A8005800B1FBF0F0C0F30B03032B16D8042053
:1010B8007047826832B903EB4300B1FBF0F040F4AB
:1010C800004007E003EB830000EB8000B1FBF0F089
:1010D80040F44040C0F30B0303B90120704700BF40
:1010E800A0860100002800F0AB8038B504460368EC
:1010F800544A934208D002F58062934204D04FF4D8
:10110800A571514803F0DCFA6368013B4F4A9342EA
:1011180004D940F24B114C4803F0D2FAA3683BB112
:10112800B3F5804F04D04FF4A671474803F0C8FACE
:10113800E36823F47F7323F0030323B140F24D11D6
:10114800414803F0BDFA2369B3F5804F07D0B3F5E2
:10115800404F04D04FF4A7713B4803F0B1FA6369DC
:10116800012B04D940F24F11374803F0A9FAA369BB
:1011780033F0FE0304D04FF4A871334803F0A0FA0B
:10118800E36933B1402B04D040F251112E4803F0EB
:1011980097FA236A33B1802B04D04FF4A9712A48F7
:1011A80003F08EFA94F8353013F0FF0F05D10023C1
:1011B80084F83430204603F001FB242384F83530CA
:1011C8002268136823F00103136001F001FA014655
:1011D8001F4BA3FB00239B0C2268536020686568A3
:1011E8001C4A954201D8013308E04FF4967202FB7D
:1011F80003F3194AA2FB03239B0901330362256801
:101208002046FFF749FFE8612268E169236A0B433A
:10121800136022682169E3680B439360226861695F
:10122800A3690B43D3602268136843F0010313607A
:101238000020A063202384F8353084F8360038BDB8
:101248000120704700540040547800087F1A0600B7
:1012580083DE1B43A0860100D34D6210002870D0A6
:10126800F0B587B004460268384B9A4203D0A121F2
:10127800374803F025FA94F8E93313F0FF0F05D146
:10128800002384F8E833204603F0F4FB032384F8B2
:10129800E933206802F0FEF9254655F8107B6E46C2
:1012A8000FCD0FC62B683360231D0ECB384602F0D6
:1012B800DFF90021206802F0F7F9002310E004EBC1
:1012C8004312012182F8291082F8283093860021E0
:1012D80082F82B109163D1639A1C5201A1500133FB
:1012E8000E2BECD9002312E004EB4312002182F804
:1012F800091282F80832938682F80B12C2F8181283
:10130800C2F81C1203F111025201A15001330E2B35
:10131800EAD9254655F8107B6E460FCD0FC62B68C7
:101328003360231D0ECB384602F0C0F9002584F83F
:101338002450012384F8E933206802F001FC284690
:1013480001E00120704707B0F0BD00BF005C00401D
:101358008078000890F8E833012B10D010B50446C7
:10136800012180F8E81303F071FC206802F0E6FB25
:10137800206802F085F9002084F8E80310BD0220F7
:10138800704700BF90F8E833012B11D010B5044620
:10139800012380F8E833006802F07CF9206802F045
:1013A800BBFB206802F0CCFB002084F8E80310BDEA
:1013B8000220704790F8E833012B0DD010B5044691
:1013C800012380F8E83380F82410006802F0B0FBAD
:1013D800002084F8E80310BD0220704738B54DB2EC
:1013E800002D05DA01F07F0464012834044405E087
:1013F80001F07F04640104F50274044401F07F01E4
:101408002170ED0F65702261E37090F8E833012BCD
:101418000BD00546012380F8E8332146006802F026
:1014280059F9002085F8E80338BD022038BD00BF0F
:1014380070B501F07F056C0104F5027101440444A4
:10144800C4F81C2205F111025201861883500023AA
:10145800736084F8093284F8085290F8E833012B55
:101468000FD00446012380F8E8331DB9006802F064
:1014780083FB02E0006802F07FFB002084F8E803A9
:1014880070BD022070BD00BF70B501F07F056C0112
:1014980004F1280101440444E263AA1C520186189D
:1014A800835000237360012384F8293084F828507E
:1014B80090F8E833012B0FD00446012380F8E83375
:1014C8001DB9006802F058FB02E0006802F054FB06
:1014D800002084F8E80370BD022070BD70B582B0AA
:1014E80005460023ADF80630ADF8043016E2BDF825
:1014F800064014F00F0440F0C880BDF8063003F031
:1015080010039BB29BBB03889BB223F4E14323F0F7
:1015180070039BB203802968B1F850309AB295F8ED
:10152800283002EBC303023301EB4303D3F8003442
:10153800C3F309036B64EA6B1344EB630021284689
:1015480003F0CAFA95F8243013F0FF0F00F0E68193
:101558002B6C002B40F0E2812A6895F8243043F088
:101568008003A2F84C30002385F82430D6E10388A4
:101578009BB2ADF80430BDF8043003F400639BB2AD
:1015880003B3B0F850309BB295F8082203EBC203BE
:10159800063300EB4303D3F80034C3F30903C5F85B
:1015A8002432B5F80C2205F57B7102F059FC2A6843
:1015B800138823F070031B051B0D1380284603F0C6
:1015C80079FAABE1BDF8043013F4004F00F0A681BE
:1015D800038823F070031B051B0D03802868B0F8EF
:1015E80050309BB295F8082203EBC203063300EB98
:1015F8004303D3F80034C3F30903C5F8243263B1B5
:10160800B5F80C22D5F81C1202F02AFCD5F81C22D9
:10161800D5F824321344C5F81C320021284603F0BB
:1016280051FA2A68B2F850309BB2063302EB4303F2
:10163800D5F818123E290ED9C1F34F1211F01F0F19
:1016480001D1013A92B26FEAC2626FEA524292B293
:10165800C3F800240AE0C1F34F0211F0010F01D0D2
:10166800013292B2920292B2C3F800242A68138817
:101678009BB223F4804323F0700383F4405343F474
:10168800004343F08003138048E130F824309BB2D4
:10169800ADF80430BDF8043013F4004F00F0968024
:1016A80030F8243023F070031B051B0D20F824307C
:1016B80005EB441393F81232E3B92868B0F85030B8
:1016C8009BB205EB441292F8082203EBC2030633DF
:1016D80000EB4303B3F80064C6F30906002E52D0AA
:1016E80005EB44113346B1F80C22D1F81C1202F074
:1016F800B7FB48E0286805EB441393F8081230F864
:10170800213003F480439BB2B3B1B0F8502092B2B9
:1017180002EBC103023300EB4303B3F80064C6F3E2
:101728000906FEB105EB44113346B1F80E22D1F893
:101738001C1202F095FB15E0B0F850309BB203EB99
:10174800C103063300EB4303B3F80064C6F309068C
:1017580046B105EB44113346B1F81022D1F81C12FA
:1017680002F07EFB2A6805EB441393F8081232F85E
:10177800213023F0F0031B051B0D43F4004343F015
:10178800C00322F8213004F111035B01E9184A680B
:1017980032444A6005EB4411D1F81C223244C1F8A6
:1017A8001C22EB581BB1D1F818128E4207D205EB58
:1017B800441393F80812284603F084F906E005EB71
:1017C800441191F808122846FFF732FEBDF804309C
:1017D80003F080039BB2002B00F0A0802A6832F847
:1017E80024309BB223F4E14323F070039BB222F828
:1017F800243005EB441393F83230EBB92868B0F87D
:1018080050309BB205EB441292F8282003EBC20338
:10181800023300EB4303D3F80034C3F30903A21CDB
:1018280005EB42125360002B51D005EB44118A8D11
:10183800C96B02F08DF94AE0286805EB441393F868
:10184800281030F8213003F040039BB2BBB1B0F848
:10185800502092B202EBC103023300EB4303D3F8EA
:101868000034C3F30903A21C05EB42125360EBB129
:1018780005EB4411CA8DC96B02F06AF916E0B0F89D
:1018880050309BB203EBC103063300EB4303D3F89C
:101898000034C3F30903A21C05EB421253602BB1B9
:1018A80005EB44110A8EC96B02F052F92A6805EB60
:1018B800441393F8281032F8213023F0F0031B0565
:1018C8001B0D43F4404343F0800322F8213029687C
:1018D800B1F850309AB205EB441090F8283002EB7A
:1018E800C303023301EB4303D3F80034C3F3090302
:1018F800A11C49016A185360C26B1A44C2636B5831
:101908002BB990F82810284603F0E6F806E005EB16
:10191800441494F828102846FFF7B6FD2868B0F854
:1019280044309BB2ADF8063013F4004F7FF4DFADBE
:10193800002002B070BD00BF10B50446006802F078
:1019480001F910F4004F02D02046FFF7C7FD2068C8
:1019580002F0F8F810F4806F0FD02268B2F8443023
:101968009BB223F480639BB2A2F84430204603F074
:10197800C3F800212046FFF71DFD206802F0E2F8B9
:1019880010F4804F08D02268B2F844309BB223F498
:1019980080439BB2A2F84430206802F0D3F810F4D8
:1019A800005F08D02268B2F844309BB223F4005399
:1019B8009BB2A2F84430206802F0C4F810F4805FAB
:1019C80019D02268B2F840309BB223F004039BB2CE
:1019D800A2F8403023684FF43D42A3F84020204647
:1019E80003F0A6F82268B2F844309BB223F480537F
:1019F8009BB2A2F84430206802F0A4F810F4006FFB
:101A080021D02268B2F844309BB223F400639BB221
:101A1800A2F844302268B2F840309BB243F0080381
:101A2800A2F840302268B2F840309BB243F0040379
:101A3800A2F84030206802F085F810F4805F02D1E7
:101A4800204603F065F8206802F07CF810F4007F67
:101A58000BD02268B2F844309BB223F400739BB2D7
:101A6800A2F84430204603F041F8206802F06AF8F2
:101A780010F4807F08D02268B2F844309BB223F477
:101A880080739BB2A2F8443010BD00BF38B54AB28B
:101A9800002A05DA01F07F035B012833034403E0E1
:101AA8004B0103F50273034401249C7001F07F0489
:101AB8001C70D20F5A7090F8E823012A11D00546FD
:101AC800012280F8E8231946006801F0A1FF24B933
:101AD80005F57B71286802F039F8002085F8E803DD
:101AE80038BD022038BD00BF10B54AB2002A05DA59
:101AF80001F07F035B012833034403E04B0103F546
:101B08000273034400249C7001F07F011970D20F06
:101B18005A7090F8E823012A0BD00446012280F875
:101B2800E8231946006801F0ABFF002084F8E803B9
:101B380010BD022010BD00BF10B401F08004A4B293
:101B48002CB101F07F0149012831014403E049012A
:101B580001F50271014412B98A728B8004E00122F6
:101B68008A72CB801B0C0B81002010BC704700BF11
:101B780030B583B0044620B94FF48771B94802F0F4
:101B88009FFD23683BB113F00F0F04D140F20F11F2
:101B9800B44802F095FD236813F0010F00F0A3800C
:101BA800636853B1B3F5803F07D0B3F5A02F04D0D5
:101BB80040F21511AB4802F083FDAB4B5B6803F0B4
:101BC8000C03042B0AD0A84B5B6803F00C03082B0A
:101BD8001BD1A54B5B6813F4803F16D04FF400333C
:101BE80093FAA3F3A04B1A684FF4003393FAA3F3C4
:101BF800B3FA83F303F01F0322FA03F313F0010F80
:101C080071D06368002B6ED11BE36368B3F5803F26
:101C180005D1954A136843F48033136026E063B90D
:101C280003F1804303F504331A6822F480321A6002
:101C38001A6822F480221A6018E0B3F5A02F0CD19C
:101C480003F18043A3F53C331A6842F480221A60FA
:101C58001A6842F480321A6008E0834B1A6822F44A
:101C680080321A601A6822F480221A606368EBB125
:101C7800FEF798FB054605E0FEF794FB401B642839
:101C880000F2E1824FF4003393FAA3F3764B1A681B
:101C98004FF4003393FAA3F3B3FA83F303F01F036B
:101CA80022FA03F313F0010FE6D01CE0FEF77AFBEB
:101CB800054605E0FEF776FB401B642800F2C58266
:101CC8004FF4003393FAA3F3674B1A684FF40033C9
:101CD80093FAA3F3B3FA83F303F01F0322FA03F38F
:101CE80013F0010FE6D1236813F0020F00F0A08073
:101CF8002369012B04D940F249115A4802F0E0FC4B
:101D080063691F2B04D94FF4A571564802F0D8FC1B
:101D1800554B5B6813F00C0F0AD0534B5B6803F00C
:101D28000C03082B27D1504B5B6813F4803F22D15A
:101D3800022393FAA3F34C4B1A68022393FAA3F3F2
:101D4800B3FA83F303F01F0322FA03F313F0010F2E
:101D580003D02369012B40F07A824348036823F0BB
:101D6800F8016369F82292FAA2F2B2FA82F2934079
:101D78000B4303605CE023699BB3012292FAA2F350
:101D8800B3FA83F39B0003F1844303F584031A60D9
:101D9800FEF708FB054605E0FEF704FB401B02289A
:101DA80000F25782022393FAA3F32F4B1A680223F7
:101DB80093FAA3F3B3FA83F303F01F0322FA03F3AE
:101DC80013F0010FE8D02848036823F0F80163698D
:101DD800F82292FAA2F2B2FA82F293400B4303601D
:101DE80026E0012393FAA3F3B3FA83F39B0003F1EC
:101DF800844303F5840300221A60FEF7D3FA0546EC
:101E080005E0FEF7CFFA401B022800F224820223E5
:101E180093FAA3F3144B1A68022393FAA3F3B3FAC1
:101E280083F303F01F0322FA03F313F0010FE8D141
:101E3800236813F0080F5CD0A369012B04D94FF471
:101E4800C571084802F03CFCA3696BB3012292FA01
:101E5800A2F3B3FA83F3054941F82320FEF7A2FA67
:101E680005460BE0C078000800100240800442429A
:101E7800FEF798FA401B022800F2EF81022393FA3A
:101E8800A3F293FAA3F2A44A526A93FAA3F3B3FA19
:101E980083F303F01F0322FA03F313F0010FE7D0D3
:101EA8000120FEF785FA24E0012393FAA3F3B3FA9D
:101EB80083F30021994A42F82310FEF773FA054686
:101EC80005E0FEF76FFA401B022800F2C8810223E2
:101ED80093FAA3F293FAA3F28F4A526A93FAA3F3FE
:101EE800B3FA83F303F01F0322FA03F313F0010F8D
:101EF800E7D1236813F0040F00F0AB80E368012BEF
:101F080006D9052B04D040F2B711854802F0D8FB5A
:101F1800814BDA6942F08052DA61DB6903F0805361
:101F28000193019B7F4A136843F480731360FEF7A3
:101F380039FA054605E0FEF735FA401B642800F239
:101F48009081784B1B6813F4807FF4D0E368012BF1
:101F580005D1714A136A43F00103136222E063B9A1
:101F680003F1804303F504331A6A22F001021A626E
:101F78001A6A22F004021A6214E0052B09D1664B92
:101F88001A6A42F004021A621A6A42F001021A62DC
:101F980008E0614B1A6A22F001021A621A6A22F0FA
:101FA80004021A62E36853B3FEF7FCF9054607E03A
:101FB800FEF7F8F9401B41F28833984200F253814A
:101FC800022393FAA3F293FAA3F3B3FA83F35B0918
:101FD80043F00203DBB2022B02D14F4B1A6A01E035
:101FE8004D4B5A6A022393FAA3F3B3FA83F303F02F
:101FF8001F0322FA03F313F0010FD9D029E0FEF7EB
:10200800D1F9054607E0FEF7CDF9401B41F28833C8
:10201800984200F22A81022393FAA3F293FAA3F3D7
:10202800B3FA83F35B0943F00203DBB2022B02D15C
:10203800394B1A6A01E0384B5A6A022393FAA3F320
:10204800B3FA83F303F01F0322FA03F313F0010F2B
:10205800D9D1E369022B04D940F24721304802F074
:102068002FFBE369002B00F002812B4A526802F033
:102078000C02082A00F0FD80022B40F0B780236A8A
:102088003BB1B3F5803F04D04FF41471244802F0FB
:1020980017FB636A73B3B3F5802F2BD0B3F5002F0A
:1020A80028D0B3F5402F25D0B3F5801F22D0B3F543
:1020B800A01F1FD0B3F5C01F1CD0B3F5E01F19D067
:1020C800B3F5001F16D0B3F5101F13D0B3F5201FBA
:1020D80010D0B3F5301F0DD0B3F5401F0AD0B3F5BB
:1020E800501F07D0B3F5601F04D040F251210C48AF
:1020F80002F0E6FA4FF0807393FAA3F3B3FA83F38E
:102108009B0003F1844303F5840300221A60FEF761
:1021180049F905460EE000BF001002408004424223
:10212800C078000800700040FEF73CF9401B022808
:1021380000F2A1804FF0007393FAA3F3514B1A6891
:102148004FF0007393FAA3F3B3FA83F303F01F037A
:1021580022FA03F313F0010FE6D1236AB3F5803FA7
:1021680010D1A3683BB1B3F5003F04D040F267211A
:10217800454802F0A5FA43494B6823F40032A368A6
:1021880013434B603F48436823F47411236A626A1F
:1021980013430B4343604FF0807393FAA3F3B3FAEE
:1021A80083F39B0003F1844303F5840301221A603F
:1021B800FEF7F8F8044604E0FEF7F4F8001B0228DE
:1021C8005BD84FF0007393FAA3F32E4B1A684FF0C5
:1021D800007393FAA3F3B3FA83F303F01F0322FA0D
:1021E80003F313F0010FE7D0002049E04FF08073AC
:1021F80093FAA3F3B3FA83F39B0003F1844303F543
:10220800840300221A60FEF7CDF8044604E0FEF7C6
:10221800C9F8001B022832D84FF0007393FAA3F3D1
:10222800184B1A684FF0007393FAA3F3B3FA83F3C9
:1022380003F01F0322FA03F313F0010FE7D1002084
:102248001EE001201CE003201AE0032018E0012012
:1022580016E0032014E0032012E0032010E003201E
:102268000EE003200CE003200AE0032008E0002031
:1022780006E0012004E0032002E0032000E0032040
:1022880003B030BD00100240C078000830B486B0FA
:102298001F4D02AC28686968AA68EB680FC42B8ACE
:1022A800ADF804301B4B5B6803F00C02082A2AD1F6
:1022B80003F470114FF4701292FAA2F2B2FA82F299
:1022C80021FA02F206A90A4412F8102C13F4803FEE
:1022D80015D0104B5B6803F400314FF4003393FAC8
:1022E800A3F3B3FA83F321FA03F306A90B4413F813
:1022F800140C094BB3FBF0F000FB02F004E00748B4
:1023080000FB02F000E0044806B030BC704700BF94
:10231800AC7800080010024000127A0000093D0065
:1023280070B50D46044620B94FF42F71A04802F04D
:10233800C7F9236813F00F0F04D140F2BD219C4860
:1023480002F0BEF9022D04D940F2BE21984802F0ED
:10235800B7F9984B1B6803F007039D420BD9954AC0
:10236800136823F007032B431360136803F0070374
:102378009D4240F00D81236813F0020F1DD0A36821
:10238800A3B1802B12D0902B10D0A02B0ED0B02B45
:102398000CD0C02B0AD0D02B08D0E02B06D0F02BC5
:1023A80004D040F2D721824802F08AF982494B686A
:1023B80023F0F002A36813434B60236813F0010F66
:1023C80000F081806368022B04D940F2DE2178484E
:1023D80002F076F96268012A13D14FF4003393FAB8
:1023E800A3F3754B19684FF4003393FAA3F3B3FAC8
:1023F80083F303F01F0321FA03F313F0010F28D12D
:10240800C8E0022A13D14FF0007393FAA3F36A4B82
:1024180019684FF0007393FAA3F3B3FA83F303F048
:102428001F0321FA03F313F0010F12D1B4E00223C2
:1024380093FAA3F3604B1968022393FAA3F3B3FA50
:1024480083F303F01F0321FA03F313F0010F00F0E5
:10245800A58059494B6823F0030313434B60FDF7EC
:10246800A1FF06466368012B0FD107E0FDF79AFF2D
:10247800801B41F28833984200F292804E4B5B6891
:1024880003F00C03042BF1D11DE0022B16D107E059
:10249800FDF788FF801B41F28833984200F2828062
:1024A800454B5B6803F00C03082BF1D10BE0FDF7FB
:1024B80079FF801B41F28833984275D83E4B5B68A0
:1024C80013F00C0FF3D13B4B1B6803F007039D423D
:1024D8000AD2384A136823F007032B4313601368A2
:1024E80003F007039D4261D1236813F0040F19D04C
:1024F800E36883B1B3F5806F0DD0B3F5A06F0AD050
:10250800B3F5C06F07D0B3F5E06F04D040F23231B5
:10251800274802F0D5F828494B6823F4E062E368BD
:1025280013434B60236813F0080F1AD0236983B153
:10253800B3F5806F0DD0B3F5A06F0AD0B3F5C06FB7
:1025480007D0B3F5E06F04D040F23931184802F0F3
:10255800B7F8194A536823F46053216943EAC10361
:102568005360FFF793FE144B5B6803F0F002F0230F
:1025780093FAA3F3B3FA83F322FA03F30F4AD35C73
:10258800D8400F4B1860002002F0ECF9002070BD15
:10259800012070BD012070BD012070BD012070BDFB
:1025A800032070BD032070BD032070BD012070BDE5
:1025B800C07800080020024000100240F07A0008AD
:1025C8000C000020014B1868704700BF0C00002069
:1025D80008B5FFF7F7FF084B5B6803F4E0624FF4B8
:1025E800E06393FAA3F3B3FA83F322FA03F3034AFB
:1025F800D35CD84008BD00BF00100240007B000833
:1026080008B5FFF7DFFF084B5B6803F460524FF42F
:10261800605393FAA3F3B3FA83F322FA03F3034A5A
:10262800D35CD84008BD00BF00100240007B000802
:1026380038B50D46044620B940F2AD41114802F0C4
:102648003FF825B940F2AE410E4802F039F80F23A1
:1026580023600D4B5A6802F0030262605A6802F068
:10266800F002A2605A6802F4E062E2605B68DB088C
:1026780003F4E0632361054B1B6803F007032B6039
:1026880038BD00BFC078000800100240002002409A
:10269800F0B583B00446036813F0130F03D17E210D
:1026A8005F4802F00DF8236813F0010F7FD06368CC
:1026B80063B1B3F5807F09D0B3F5007F06D0B3F5D9
:1026C800407F03D08421564801F0FAFF554BDA6960
:1026D80042F08052DA61DB6903F080530193019B79
:1026E800514A136843F480731360FDF75BFE054697
:1026F80005E0FDF757FE401B642800F289804A4B2D
:102708001B6813F4807FF4D0464B1B6A13F44073A4
:1027180046D0626802F44072934241D04148016A4F
:1027280021F440764FF4803393FAA3F2B2FA82F29E
:102738003E4D012745F8227093FAA3F3B3FA83F3C9
:10274800002245F82320066211F0010F28D0FDF77A
:1027580029FE054606E0FDF725FE401B41F28833B9
:10276800984257D8022393FAA3F293FAA3F3B3FA41
:1027780083F35B0943F00203DBB2022B02D1294B3E
:102788001A6A01E0274B5A6A022393FAA3F3B3FAB1
:1027980083F303F01F0322FA03F313F0010FDAD0D7
:1027A80020490B6A23F44072636813430B62236861
:1027B80013F0020F15D0A36863B1B3F5804F09D0A9
:1027C800B3F5004F06D0B3F5404F03D0BA211448F3
:1027D80001F076FF13494B6823F44042A368134382
:1027E8004B60236813F0100F16D0E368B3F5800F21
:1027F80005D023B14FF48B71094801F061FF0949F5
:102808004B6823F48002E36813434B60002004E024
:10281800032002E0032000E0002003B0F0BD00BF69
:10282800EC780008001002400070004000044242AA
:102838002DE9F04104460D46036A23F001030362C3
:10284800066AD0F80480876927F073030F681F436E
:1028580026F002038E681E431C4B98420ED1CB68AB
:1028680033B1082B04D041F21521194801F028FF93
:1028780026F00806EB681E4326F00406134B9C421C
:102888001BD1AB69B3F5007F05D023B141F22221FA
:102898000F4801F015FF6B69B3F5807F05D023B1B0
:1028A80041F223210A4801F00BFF28F440786B69B4
:1028B80048EA0308AB6948EA0308C4F80480A7613A
:1028C8006B6863632662BDE8F08100BF002C01409D
:1028D8001C7900082DE9F04104460E46036A23F4EA
:1028E80080730362056AD0F80480C76927F0730310
:1028F8000F681F4325F400738D6843EA05251D4BB7
:1029080098420FD1CB6833B1082B04D041F2AA21E9
:10291800194801F0D5FE25F40065F36845EA03255A
:1029280025F48065134B9C421BD1B369B3F5007F36
:1029380005D023B141F2B7210F4801F0C1FE7369F8
:10294800B3F5807F05D023B141F2B8210A4801F0E0
:10295800B7FE28F44058736948EA0318B36948EA8F
:102968000318C4F80480E7617368E3632562BDE86F
:10297800F08100BF002C01401C7900082DE9F041CE
:1029880004460F46036A23F480530362056AD0F8AD
:102998000480C66926F4E6430E6843EA062625F451
:1029A80000538D6843EA05350C4B98420ED14B69AC
:1029B800B3F5807F05D023B141F2F521084801F035
:1029C8007FFE28F480487B6948EA8318C4F80480AD
:1029D800E6617B6823642562BDE8F081002C014034
:1029E8001C790008704700BF10B5044603680F4AF9
:1029F80093420FD0B3F1804F0CD0A2F5943293429A
:102A080008D002F58062934204D04FF4AF710848B1
:102A180001F056FE2268D36843F00103D3602268B0
:102A2800136843F001031360002010BD002C01401F
:102A38001C790008704700BF704700BF704700BF8F
:102A4800704700BF10B5044603681A6912F0020FF8
:102A580017D0DA6812F0020F13D06FF002021A6171
:102A68000123037603689B6913F0030F02D0FFF775
:102A7800E3FF04E0FFF7DEFF2046FFF7DFFF002358
:102A8800237623681A6912F0040F19D0DA6812F055
:102A9800040F15D06FF004021A610223237623680D
:102AA8009B6913F4407F03D02046FFF7C5FF05E07C
:102AB8002046FFF7BFFF2046FFF7C0FF002323761D
:102AC80023681A6912F0080F19D0DA6812F0080F93
:102AD80015D06FF008021A61042323762368DB6996
:102AE80013F0030F03D02046FFF7A6FF05E02046AA
:102AF800FFF7A0FF2046FFF7A1FF002323762368F6
:102B08001A6912F0100F19D0DA6812F0100F15D0E8
:102B18006FF010021A61082323762368DB6913F427
:102B2800407F03D02046FFF787FF05E02046FFF7E8
:102B380081FF2046FFF782FF0023237623681A6966
:102B480012F0010F09D0DA6812F0010F05D06FF00A
:102B580001021A61204601F0E1FB23681A6912F0AC
:102B6800800F09D0DA6812F0800F05D06FF080026C
:102B78001A61204600F00AFB23681A6912F0400F18
:102B880009D0DA6812F0400F05D06FF040021A61E0
:102B98002046FFF755FF23681A6912F0200F09D065
:102BA800DA6812F0200F05D06FF020021A61204673
:102BB80000F0EAFA10BD00BF0368184A90420AD034
:102BC800B0F1804F07D0A2F59432904203D002F5BD
:102BD8008062904203D123F070034A6813430F4A7E
:102BE80090420AD0B0F1804F07D0A2F594329042BB
:102BF80003D002F58062904203D123F44073CA687F
:102C0800134303608B68C3620B688362034B98426B
:102C180001D10B690363012343617047002C014014
:102C2800002845D010B504460368224A93420ED0C6
:102C3800B3F1804F0BD0A2F59432934207D002F53E
:102C48008062934203D0D7211B4801F039FDA36865
:102C58005BB1102B09D0202B07D0402B05D0602B5F
:102C680003D0D821144801F02BFD23694BB1B3F5EB
:102C7800807F06D0B3F5007F03D0D9210E4801F03C
:102C88001FFD94F8393013F0FF0F05D1002384F8A5
:102C980038302046FFF7A6FE022384F83930211D7C
:102CA8002068FFF789FF012384F83930002010BD20
:102CB80001207047002C01401C790008002848D0EA
:102CC80010B504460368244A93420FD0B3F1804FED
:102CD8000CD0A2F59432934208D002F58062934258
:102CE80004D040F2E2311D4801F0EAFCA36863B168
:102CF800102B0AD0202B08D0402B06D0602B04D0F4
:102D080040F2E331154801F0DBFC236953B1B3F518
:102D1800807F07D0B3F5007F04D04FF479710F4856
:102D280001F0CEFC94F8393013F0FF0F05D10023E1
:102D380084F83830204601F065FD022384F83930E4
:102D4800211D2068FFF738FF012384F8393000205F
:102D580010BD0120704700BF002C01401C790008FD
:102D68002DE9F04104460F46036A23F0100303627D
:102D7800056AD0F80480866926F4E6430E6843EABB
:102D8800062625F020038D6843EA05151C4B98425A
:102D98000FD1CB6833B1082B04D041F25F21194819
:102DA80001F08EFC25F08005FB6845EA031525F047
:102DB8004005134B9C421BD1BB69B3F5007F05D07E
:102DC80023B141F26D210F4801F07AFC7B69B3F51C
:102DD800807F05D023B141F26E210A4801F070FCD2
:102DE80028F440687B6948EA8308BB6948EA830895
:102DF800C4F80480A6617B68A3632562BDE8F081FE
:102E0800002C01401C79000890F83830012B00F0A4
:102E1800E88070B516460D460446012380F8383020
:102E280062B1042A0AD0082A08D00C2A06D0182A27
:102E380004D040F60D416C4801F042FC2B68602B31
:102E480006D0702B04D040F60E41674801F038FCDC
:102E5800AB6833B1022B04D040F60F41624801F051
:102E68002FFC2B6933B1042B04D04FF441615E4829
:102E780001F026FC022384F839300C2E00F2AA80D7
:102E8800DFE806F007A8A8A82FA8A8A858A8A8A807
:102E980080002368554A93420FD0B3F1804F0CD07D
:102EA800A2F59432934208D002F58062934204D08E
:102EB80040F618414C4801F003FC29462068FFF70A
:102EC800B7FC2268936943F0080393612268936909
:102ED80023F004039361226891692B690B43936182
:102EE80078E02368414A93420FD0B3F1804F0CD069
:102EF800A2F59432934208D002F58062934204D03E
:102F080040F62741384801F0DBFB29462068FFF7E7
:102F180027FF2268936943F40063936122689369E9
:102F280023F48063936122689369296943EA012342
:102F380093614FE023682D4A93420FD0B3F1804F3D
:102F48000CD0A2F59432934208D002F580629342E5
:102F580004D040F63641244801F0B2FB29462068E7
:102F6800FFF7B8FC2268D36943F00803D3612268ED
:102F7800D36923F00403D3612268D1692B690B4319
:102F8800D36127E02368194A93420FD0B3F1804FE9
:102F98000CD0A2F59432934208D002F58062934295
:102FA80004D040F64541104801F08AFB29462068C4
:102FB800FFF7E4FC2268D36943F40063D361226815
:102FC800D36923F48063D3612268D369296943EA0A
:102FD8000123D361012384F83930002084F83800B4
:102FE80070BD0220704700BF1C790008002C01400A
:102FF80070B504460E461546164B98420FD0B0F1F0
:10300800804F0CD0A3F59433984208D003F5806321
:10301800984204D041F2EB410F4801F051FB66B1F0
:10302800042E0AD0082E08D00C2E06D0182E04D054
:1030380041F2EC41084801F043FB012303FA06F290
:10304800236A23EA02032362236AB5401D432562EB
:1030580070BD00BF002C01401C79000838B504463B
:103068000D460368164A93420AD0B3F1804F07D041
:10307800A2F59432934203D002F58062934206D1BE
:1030880055B1042D08D0082D06D00C2D04D04FF4CE
:1030980088610C4801F014FB012229462068FFF7DB
:1030A800A7FF2368064A934203D15A6C42F40042B0
:1030B8005A642268136843F001031360002038BD86
:1030C800002C01401C79000838B504460D460368F9
:1030D8002B4A93420FD0B3F1804F0CD0A2F5943213
:1030E800934208D002F58062934204D040F28C618A
:1030F800244801F0E5FA2B6893B1102B10D0202B4F
:103108000ED0302B0CD0402B0AD0502B08D0602B7F
:1031180006D0702B04D040F28D611A4801F0D0FA25
:103128006B68802B05D023B140F28E61154801F001
:10313800C7FA94F83830012B1FD0012284F83820C0
:10314800022384F8393021684B6823F070034B6000
:10315800216848682B6803434B6021688B6823F01B
:1031680080038B60216888686B6803438B6084F8F0
:103178003920002084F8380038BD022038BD00BF4F
:10318800002C014048790008704700BF704700BF15
:103198002DE9F84381464268834B9A4204D940F2AC
:1031A8005271824801F08CFAD9F80C303BB1B3F572
:1031B800005F04D040F253717C4801F081FAD9F8DD
:1031C800103053B1B3F5806F07D0B3F5C06F04D09A
:1031D80040F25471754801F073FAD9F8143033F09D
:1031E8000C0200D123B940F25571704801F068FA19
:1031F800D9F800100B6923F44052D9F80C30134366
:103208000B61D9F80810D9F810301943D9F81430DF
:103218001943D9F80000C26822F4B05323F00C0314
:103228000B43C360D9F800104B6923F44072D9F8F6
:10323800183013434B61D9F800505D4B9D4259D16A
:10324800FFF7DEF900EB800000EB8000D9F80440BE
:10325800A400B0FBF4F4574EA6FB0434640924011F
:10326800FFF7CEF900EB800000EB8000D9F80430BE
:103278009B00B0FBF3F7FFF7C3F900EB800000EB0E
:103288008000D9F804309B00B0FBF3F3A6FB0323BE
:103298005B094FF0640808FB13731B013233A6FB6C
:1032A80003235B0903F0F0031C44FFF7A9F900EBC3
:1032B800800000EB8000D9F804309B00B0FBF3F7E6
:1032C800FFF79EF900EB800000EB8000D9F804308E
:1032D8009B00B0FBF3F3A6FB03235B0908FB137306
:1032E8001B013233A6FB0323C3F343131C44AC6016
:1032F800BDE8F883FFF76CF900EB800000EB800075
:10330800D9F80440A400B0FBF4F42A4EA6FB043418
:1033180064092401FFF75CF900EB800000EB8000F2
:10332800D9F804309B00B0FBF3F7FFF751F900EB35
:10333800800000EB8000D9F804309B00B0FBF3F369
:10334800A6FB03235B094FF0640808FB13731B01FA
:103358003233A6FB03235B0903F0F0031C44FFF799
:1033680037F900EB800000EB8000D9F804309B00AF
:10337800B0FBF3F7FFF72CF900EB800000EB8000BF
:10338800D9F804309B00B0FBF3F3A6FB03235B09D9
:1033980008FB13731B013233A6FB0323C3F3431348
:1033A8001C44AC60BDE8F88320AA44007879000882
:1033B800003801401F85EB512DE9F04105460E46C6
:1033C80090461C46FCF7EEFF0746B8F1000F26D0E2
:1033D80053E0B4F1FF3F22D024B1FCF7E3FFC01B58
:1033E80084421CD22A68D36823F08003D3602A68F9
:1033F800D36823F02003D3602A68D36823F480734A
:10340800D3602A68536923F001035361012385F8C7
:103418003930002385F838300320BDE8F0812B6867
:103428001B6836EA0303D4D10020BDE8F081B4F16B
:10343800FF3F22D024B1FCF7B5FFC01B84421CD249
:103448002A68D36823F08003D3602A68D36823F0FE
:103458002003D3602A68D36823F48073D3602A6872
:10346800536923F001035361012385F839300023A0
:1034780085F838300320BDE8F0812B681B6836EAF0
:103488000303D4D00020BDE8F08100BF002872D02B
:1034980010B5044683690BB30368384A93420CD0CD
:1034A800A2F57442934208D002F58062934204D098
:1034B80040F20711324801F003F9A369FBB1B3F5F3
:1034C800807F1CD0B3F5007F19D0B3F5407F16D0AC
:1034D8004FF484712A4801F0F3F810E00368274A92
:1034E80093420CD0A2F57442934208D002F5806250
:1034F800934204D04FF48671214801F0E1F8A368A3
:103508003BB1B3F5805F04D04FF487711C4801F0DC
:10351800D7F8E36923B140F20F11194801F0D0F848
:1035280094F8393013F0FF0F05D1002384F83830B0
:10353800204601F093F9022384F839302268D368D1
:1035480023F40053D3602046FFF722FE2268136954
:1035580023F4904313612268536923F02A035361CB
:103568002268D36843F40053D3600020E06301234A
:1035780084F8393010BD0120704700BF0038014081
:103588007879000870B504460D461E4690F8393023
:10359800DBB2012B01D0222B5AD1002D5AD0002AA0
:1035A8005AD094F83830012B58D0012384F8383099
:1035B8000023E36394F83930DBB2222B03D13223A2
:1035C80084F8393002E0122384F83930A284E28486
:1035D80023E0013BE384A368B3F5805F12D133464F
:1035E800002280212046FFF7E7FE002838D1226814
:1035F8002B88C3F30803536023690BB902350CE029
:1036080001350AE03346002280212046FFF7D4FE28
:1036180040BB23682A785A600135E38C002BD8D147
:103628003346002240212046FFF7C6FE0346D8B99C
:1036380094F83920D2B2322A03D1222284F83920D0
:1036480002E0012284F83920002284F838200CE0B6
:1036580002230AE0012308E0012306E0022304E034
:10366800032302E0032300E00323184670BD00BFD4
:1036780084B001A880E80E00002004B0704700BFA5
:10368800B0F840309BB243F43D43A0F840300020EE
:10369800704700BFB0F8403023F474535B045B0CF0
:1036A800A0F84030002070470020704784B010B464
:1036B80002AC84E80E000123A0F840300023A0F8F3
:1036C8004030A0F84430A0F85030184610BC04B080
:1036D800704700BF10B4CB78032B35D8DFE803F070
:1036E80002280F1B0A7830F822309BB223F4EC43EF
:1036F80023F0700343F4007320F8223024E00A78A2
:1037080030F822309BB223F4EC4323F070039BB2D1
:1037180020F8223018E00A7830F822309BB223F4DF
:10372800EC4323F0700343F4C06320F822300BE02D
:103738000A7830F822309BB223F4EC4323F070036C
:1037480043F4806320F822300A7830F8223023F0DE
:10375800F0031B051B0D134343F4004343F08003A0
:1037680020F822308B7A002B40F08B804B7883B383
:10377800B0F850309BB20A7803EBC20300EB430366
:103788008A8852085200C3F800240A7830F8223098
:1037980003F040039BB25BB130F8223023F0F00312
:1037A8001B051B0D43F4004343F0C00320F82230EF
:1037B8000A7830F822309BB223F4E04323F0400328
:1037C80083F0200343F4004343F0800320F82230C1
:1037D8001BE1B0F850309BB20A7803EBC203043304
:1037E80000EB43038A8852085200C3F80024B0F85B
:1037F80050309BB20A7803EBC203063300EB430355
:103808000C693E2C0ED9C4F34F1214F01F0F01D1CE
:10381800013A92B26FEAC2626FEA524292B2C3F8B8
:1038280000240AE0C4F34F0214F0010F01D0013262
:1038380092B2920292B2C3F800240A7830F8223089
:1038480003F480439BB25BB130F8223023F0F003DD
:103858001B051B0D43F4404343F0800320F822303E
:103868000A7830F822309BB223F4804323F07003A7
:1038780083F4405343F4004343F0800320F822309C
:10388800C3E00A7830F8223023F4F8731B051B0DC7
:1038980043F4014343F0800320F82230B0F850305D
:1038A8009BB20A7803EBC20300EB4303CA885208B1
:1038B8005200C3F80024B0F850309BB20A7803EBEA
:1038C800C203043300EB43030A8952085200C3F8C9
:1038D80000244B78002B4DD10A7830F8223003F4BD
:1038E80080439BB25BB130F8223023F0F0031B0514
:1038F8001B0D43F4404343F0800320F822300A783C
:1039080030F8223003F040039BB25BB130F822302C
:1039180023F0F0031B051B0D43F4004343F0C003E1
:1039280020F822300A7830F8223023F0F0031B0503
:103938001B0D43F4004343F0C00320F822300C78F9
:1039480030F824309BB223F4804323F0700383F4CF
:10395800405348F28002134320F82430097830F8A5
:1039680021309BB223F4E04323F04003134320F8B3
:1039780021304AE00A7830F8223003F480439BB2C1
:103988005BB130F8223023F0F0031B051B0D43F424
:10399800404343F0800320F822300A7830F8223080
:1039A80003F040039BB25BB130F8223023F0F00300
:1039B8001B051B0D43F4004343F0C00320F82230DD
:1039C8000A7830F8223023F0F0031B051B0D43F46E
:1039D800404343F0800320F822300C7830F824303C
:1039E8009BB223F4E04323F0400348F280021343E0
:1039F80020F82430097830F821309BB223F4804332
:103A080023F07003134320F82130002010BC7047C6
:103A18000A788AB930F822309BB223F4804323F025
:103A2800400383F4805383F0100343F4004343F0CE
:103A3800800320F8223020E04B787BB130F8223028
:103A48009BB223F4E04323F0400383F0100343F4D4
:103A5800004343F0800320F822300EE030F8223093
:103A68009BB223F4804323F0700383F4805343F420
:103A7800004343F0800320F822300020704700BF45
:103A88004B781BB30A7830F8223003F040039BB21E
:103A98005BB130F8223023F0F0031B051B0D43F413
:103AA800004343F0C00320F822300A7830F822306F
:103AB8009BB223F4E04323F0400383F0300343F444
:103AC800004343F0800320F8223022E00A7830F8DF
:103AD800223003F480439BB25BB130F8223023F0EC
:103AE800F0031B051B0D43F4404343F0800320F80B
:103AF80022300A7830F822309BB223F4804323F036
:103B0800700383F4405343F4004343F0800320F8E8
:103B180022300020704700BF03460122A0F8402051
:103B28000020A3F844000322A3F84020704700BFF8
:103B380011B98023A0F84C3000207047002070474E
:103B480000207047B0F8440080B2704700207047EA
:103B580010B401335B1000EB420202F5806207E00B
:103B68000C78487844EA002422F8044B0231013BDF
:103B7800002BF5D110BC704770B54A78012A40F087
:103B8800C2808E690B699E4203D9F61A8E611E4661
:103B980001E000238B610D4604468B7A83B9B3B2EA
:103BA8008A884969FFF7D4FFB4F850309BB22A7865
:103BB80003EBC203023304EB4303C3F8006491E050
:103BC800097830F8213003F040039BB29BB322BB45
:103BD800B0F850309BB203EBC101063100EB410154
:103BE8003E2E0ED9C6F34F1316F01F0F01D1013B1D
:103BF8009BB26FEAC3636FEA53439BB2C1F80034C8
:103C080017E0C6F34F0316F0010F01D001339BB242
:103C18009B029BB2C1F800340BE0012A09D1B0F82D
:103C280050309BB203EBC103023300EB4303C3F8EC
:103C380000642A8932E022BBB0F850309BB203EB13
:103C4800C101023100EB41013E2E0ED9C6F34F13DC
:103C580016F01F0F01D1013B9BB26FEAC3636FEAF5
:103C680053439BB2C1F8003417E0C6F34F0316F074
:103C7800010F01D001339BB29B029BB2C1F8003403
:103C88000BE0012A09D1B0F850309BB203EBC10315
:103C9800023300EB4303C3F80064EA88B3B26969EE
:103CA8002046FFF755FF6B786BB92A7834F8223035
:103CB80023F0F0031B051B0D43F4004343F0C0033E
:103CC80024F822300EE0012B0CD12A7834F8223067
:103CD80023F0F0031B051B0D43F4404343F080031E
:103CE80024F822302A7834F822309BB223F4E043B7
:103CF80023F0400383F0300343F4004343F0800390
:103D080024F82230AAE08B690C69A34203D91B1B53
:103D18008B61234601E000248C618C7A2CBBB0F8BF
:103D2800502092B20C7802EBC402063200EB420239
:103D38003E2B0ED9C3F34F1413F01F0F01D1013CD2
:103D4800A4B26FEAC4646FEA5444A4B2C2F800444F
:103D580074E0C3F34F0413F0010F01D00134A4B28F
:103D6800A402A4B2C2F8004468E02ABBB0F850200C
:103D780092B20C7802EBC402023200EB42023E2BF4
:103D88000ED9C3F34F1413F01F0F01D1013CA4B295
:103D98006FEAC4646FEA5444A4B2C2F8004418E05D
:103DA800C3F34F0413F0010F01D00134A4B2A402ED
:103DB800A4B2C2F800440CE0012A0AD1B0F850209D
:103DC80092B20C7802EBC402023200EB4202C2F853
:103DD80000344A782ABBB0F8502092B20C7802EB33
:103DE800C402063200EB42023E2B0ED9C3F34F1435
:103DF80013F01F0F01D1013CA4B26FEAC4646FEA4B
:103E08005444A4B2C2F8004418E0C3F34F0413F0BA
:103E1800010F01D00134A4B2A402A4B2C2F8004434
:103E28000CE0012A0AD1B0F8502092B20C7802EBCB
:103E3800C402023200EB4202C2F800340A7830F8B9
:103E480022309BB223F4804323F0700383F4405361
:103E580043F4004343F0800320F82230002070BD73
:103E680001335B1000EB420202F5806204E0106847
:103E780021F8020B013B0432002BF8D1704700BF38
:103E8800FEE700BF08B50D4B1B6813B90C4A0B4B76
:103E98001A600A4B1A68C31C23F003031344094928
:103EA8008B4206D903F00EF80C2303604FF0FF3065
:103EB80008BD02490B60104608BD00BF380100204C
:103EC800681E0020004C002001230360014B0B609A
:103ED800704700BF040000200FB400B583B004ABE6
:103EE80053F8042B01938021064803F02FF800288B
:103EF80003DD0146034800F039F803B05DF804EB30
:103F080004B07047400100202DE9F04385B0044615
:103F18000F46435613BB042528462146ABBE04462C
:103F28001FE03546102E28BF1025002306E014F99F
:103F3800011B04AA1A4402F8101C0133AB42F6D341
:103F480004AA1344002203F8102CE9464FF0040891
:103F580040464946ABBE8046761B00E00E46002E22
:103F6800DFD1384605B0BDE8F08300BF08B5FFF7DC
:103F7800CBFF08BD08B500F097F8024B024A9A60DB
:103F880008BD00BF00ED00E00000000808B500F023
:103F9800B1F808BDF8B504460D4617461E46264832
:103FA800FFF79AFF21682548FFF796FF61682448C4
:103FB800FFF792FFA1682348FFF78EFFE1682248C8
:103FC800FFF78AFF21692148FFF786FF61692048CA
:103FD800FFF782FFA1691F48FFF77EFFE1691E48CE
:103FE800FFF77AFF1D48FFF777FF29461C48FFF7C0
:103FF80073FF1C4CE16A1C48FFF76EFF216B1B48DE
:10400800FFF76AFFE16B1A48FFF766FF15F0800FAC
:1040180003D039461748FFF75FFF15F4004F03D068
:1040280031461548FFF758FF1448FFF755FF069922
:104038001348FFF751FFF8BDA8790008B8790008C0
:10404800C8790008D8790008E8790008F8790008E4
:10405800087A0008187A0008287A0008387A0008D0
:10406800447A000800ED00E0547A0008647A0008F9
:10407800747A0008847A0008947A0008A47A000800
:10408800AC7A000883691A888A4207D10268033A21
:10409800012A05D802338361012070470020704748
:1040A80000207047FEE700000F4B1A6842F001023B
:1040B8001A6059680D4A0A405A601A6822F08472D8
:1040C80022F480321A601A6822F480221A605A6830
:1040D80022F4FE025A604FF41F029A604FF0006209
:1040E800034B9A60704700BF001002400000FFF8C1
:1040F80000ED00E01F4B5B6803F00C03042B06D0B7
:10410800082B08D03BBB1C4A1C4B1A6026E01A4AF5
:104118001A4B1A6022E0174A53685268C3F3834364
:10412800023312F4803F05D1154A02FB03F3134A08
:10413800136013E00F4A526812F4003F05D0104A8A
:1041480002FB03F30D4A136008E00B4A02FB03F37A
:104158000A4A136002E0084A084B1A60054B5B687C
:10416800C3F30313074AD15C044A1368CB401360B6
:10417800704700BF0010024000127A000C000020B7
:1041880000093D00F07A000870B58AB0314B9A6991
:1041980042F010029A619A6902F010020192019AA3
:1041A8009A6942F020029A619A6902F0200202920A
:1041B800029A9A6942F004029A619A6902F004022A
:1041C8000392039A9A6942F008029A619A6902F086
:1041D80008020492049ADA6942F00202DA61DB69A1
:1041E80003F002030593059B4FF4604306930325F0
:1041F800079506A91848FCF7A5FD48F2B073069381
:10420800079506A91548FCF79DFD0695144B0793DD
:1042180000260896134C06A92046FCF793FD48F2A1
:104228003C330693079506A92046FCF78BFD4FF40F
:10423800E0450695012307930223099306A9204622
:10424800FCF780FD324629462046FCF7FBFE0AB003
:1042580070BD00BF0010024000100140000801407E
:1042680000001110000C014000B583B00E4B5A69D4
:1042780042F001025A615B6903F001030193019B5B
:10428800002205210D20FCF7EBFA0D20FCF72AFB94
:10429800002205211020FCF7E3FA1020FCF722FB8E
:1042A80003B05DF804FB00BF0010024008B500F041
:1042B800C5FB4FF480510448FCF7DEFE4FF4FA705A
:1042C80000F070FFF5E700BF000C014000B583B0B7
:1042D8000023ADF802300F4B186801F0F1F9A8B1CE
:1042E80000231A460DF102010A48006801F04AF954
:1042F800BDF802301A0A8DF8052002A901F8043D1C
:1043080040F6FF7302220448FFF73CF90A2000F048
:1043180049FFE0E7A0150020A814002008B50268AE
:10432800024B9A4201D1FCF735F808BD002C014038
:10433800FEE700BF00B585B01048114B03600023AD
:104348008360C36043614FF46022C261436001230C
:104358000361FCF767F908B1FFF7EAFF002301934F
:1043680001220292039301A90448FCF72FF808B12F
:10437800FFF7DEFF05B05DF804FB00BF6C150020F9
:104388000024014008B50448044B0360FCF7F2FA26
:1043980008B1FFF7CDFF08BD24150020003002400A
:1043A80008B50A480A4B03600A4B43600023836040
:1043B800C3604FF48042026143618361C361036259
:1043C800FCF790FE08B1FFF7B3FF08BDE814002022
:1043D80000540040A086010000B58BB01848194B66
:1043E80003600023436083604FF4FA52C2600361A4
:1043F8004361FEF763FC08B1FFF79AFF00230893B7
:10440800099308A90E48FEF75FFE08B1FFF790FF71
:10441800602301934FF47A630293002203920423EA
:1044280005930DEB03010648FEF7EEFC08B1FFF714
:104438007FFF034800F0FAF90BB05DF804FB00BFFA
:104448002C1500200004004008B50A480A4B0360F8
:104458004FF4E133436000238360C36003610C229F
:1044680042618361C361FFF711F808B1FFF760FF8C
:1044780008BD00BFA41500200044004008B50A4844
:104488000A4B03604FF4E133436000238360C36049
:1044980003610C2242618361C361FEF7F7FF08B133
:1044A800FFF746FF08BD00BFA814002000480040E1
:1044B80000B595B001230A934FF480330B93002283
:1044C8000C920222119212934FF4E01313930AA84C
:1044D800FDF74EFB08B1FFF72BFF0F2305930221D1
:1044E8000691002307934FF480620892099305A868
:1044F800FDF716FF08B1FFF71BFF122301934FF4D6
:10450800004303930023049301A8FEF7C1F808B100
:10451800FFF70EFFFEF756F8084BA3FB00308009A3
:10452800FCF7F6F90420FCF709FA00220F214FF0F6
:10453800FF30FCF795F915B05DF804FBD34D621018
:1045480070B592B0FBF714FFFFF7B2FFFFF71CFE40
:10455800FFF78AFEFFF7EEFEFFF714FFFFF720FFD5
:10456800FFF73AFFFFF770FFFFF788FF1A4C0DAD12
:1045780026460FCE0FC533682B6000210DA800F02A
:10458800F3FD164B186008AD04F114060FCE0FC5E5
:1045980033682B60002108A800F0E6FD104B186076
:1045A80003AD04F128060FCE0FC533682B60002138
:1045B80003A800F0D9FD0B4B186001AB3C3494E81C
:1045C800030083E803000021184600F0F3FD064BC2
:1045D800186000F0C3FDFEE7087B000834140020D3
:1045E8009C15002068150020A015002000B589B092
:1045F800602301934FF47A63029300230393042307
:1046080005930023ADF8023023E02B4B186801F026
:1046180057F8D8B9BDF80230029300231A460DF1B5
:1046280002012548006800F017FF002201A923486D
:10463800FEF7EAFB08B1FFF77BFE00211F48FEF7F3
:104648000DFDBDF80230C833ADF80230FA2000F095
:10465800A9FDBDF80230B3F5FA5FD6D34FF4FA538B
:10466800ADF8023023E0144B186801F029F8D8B9E6
:10467800BDF80230029300231A460DF102010E48DC
:10468800006800F0E9FE002201A90C48FEF7BCFB17
:1046980008B1FFF74DFE00210848FEF7DFFCBDF822
:1046A8000230C83BADF80230322000F07BFDBDF887
:1046B8000230002BD7D1A4E7A01500202C1500202C
:1046C800704700BF00B583B0204B9A6942F00102E1
:1046D8009A619B6903F001030193019B0320FCF796
:1046E800A1F8002211466FF00B00FCF7B9F8002280
:1046F80011466FF00A00FCF7B3F8002211466FF07C
:104708000900FCF7ADF8002211466FF00400FCF731
:10471800A7F8002211466FF00300FCF7A1F8002269
:104728000F216FF00100FCF79BF800220F214FF0DA
:10473800FF30FCF795F8064A536823F0E06343F02E
:104748000073536003B05DF804FB00BF0010024023
:104758000000014002680D4B9A4216D100B587B09F
:1047680003F56C439A6942F400729A619B6903F4F9
:1047780000730193019B03230293039302A9044846
:10478800FCF7E0FA07B05DF804FB7047002401402D
:10479800000801400268084B9A420CD182B0A3F588
:1047A80000535A6942F040025A615B6903F04003C2
:1047B8000193019B02B070470030024002680E4B23
:1047C8009A4218D100B587B0C023029312230393ED
:1047D8000323059302A90948FCF7B4FA084BDA69E0
:1047E80042F40012DA61DB6903F400130193019BC0
:1047F80007B05DF804FB704700540040000C01400E
:10480800001002400268084B9A420CD182B003F5AE
:104818000333DA6942F00202DA61DB6903F002036A
:104828000193019B02B07047000400400268094BE5
:104838009A420DD100B585B040230093022301931D
:10484800039369460448FCF77DFA05B05DF804FB5C
:10485800704700BF000400400008014070B586B0F2
:1048680004460368364A934232D1364BDA6942F439
:104878000032DA61DB6903F400330093009B042300
:10488800029302230393032305932F4E02A9304674
:10489800FCF758FA082302930025039504950DEBBD
:1048A80003013046FCF74EFA2848294B036045605F
:1048B80085608023C360056145618561C561FCF73A
:1048C80077F808B1FFF734FD204B63635C6235E08D
:1048D800204A934232D11B4BDA6942F48022DA61D2
:1048E800DB6903F480230193019B4FF480630293F7
:1048F8000223039303230593174E02A93046FCF7BE
:1049080021FA4FF40063029300250395049502A948
:104918003046FCF717FA1148114B03604560856073
:104928008023C360056145618561C561FCF740F876
:1049380008B1FFF7FDFC094B63635C6206B070BD0C
:1049480000440040001002400008014038140020D4
:104958006C00024000480040000C01407014002028
:104968003000024000B589B0002201461920FBF74B
:1049780077FF1920FBF7B6FF144B9A6942F40062DF
:104988009A619B6903F400630193019B02A903A840
:10499800FDF74EFEFDF734FE0D4BA3FB00239B0CE9
:1049A800013B0C480C4A026040F2E732C2604360A7
:1049B800002303618360FEF733F918B90548FEF751
:1049C80013F800E0012009B05DF804FB0010024074
:1049D80083DE1B43E4150020002C0140704700BF14
:1049E800FEE700BFFEE700BFFEE700BFFEE700BF2F
:1049F800704700BF08B500F0E5FB08BD08B50248E0
:104A0800FCF768F808BD00BF7014002008B502481C
:104A1800FCF760F808BD00BF3814002008B502484C
:104A2800FCF78AFF08BD00BF4418002008B50248FB
:104A3800FEF708F808BD00BFE415002010B5094CC2
:104A480000220949204601F0EFFA0849204601F002
:104A580003FB0749204602F02FFA204601F004FB29
:104A680010BD00BF20160020100000208C00002080
:104A78004400002002680E4B9A4217D100B583B05B
:104A880003F5DA33DA6942F40002DA61DB6903F428
:104A980000030193019B002211461420FBF7E0FE5E
:104AA8001420FBF71FFF03B05DF804FB704700BF3D
:104AB800005C004008B500F57B71D0F81C0401F0DB
:104AC800FBFA08BD08B500EB4113D3F81C22D0F857
:104AD8001C0401F01FFB08BD08B500EB4113DA6B9D
:104AE800D0F81C0401F04AFB08BD00BF08B5D0F897
:104AF8001C0401F0CDFB08BD10B504460121D0F817
:104B08001C0401F0B1FBD4F81C0401F08DFB10BDAE
:104B180010B50446D0F81C0401F0AAFBA36923B120
:104B2800024A136943F00603136110BD00ED00E06B
:104B380008B5D0F81C0401F0A5FB08BD10B5044663
:104B48001248C0F81C44C4F82002114B0360082323
:104B58004360022383600323C36000238361C3612E
:104B68000362FCF77BFB08B1FFF7E2FB1823002286
:104B78001146D4F82002FCF7DFFF582300228021D9
:104B8800D4F82002FCF7D8FF002010BD44180020FC
:104B9800005C004008B5D0F82002FCF7DBFB0020E1
:104BA80008BD00BF08B5D0F82002FCF7EBFB0020D9
:104BB80008BD00BF10B51C4613462246D0F8200297
:104BC800FCF70CFC002010BD08B5D0F82002FCF75B
:104BD8005DFF002008BD00BF08B5D0F82002FCF733
:104BE80083FF002008BD00BFD0F8202211F0800FFD
:104BF80006D001F07F0302EB431191F82A007047B9
:104C080001F07F0102EB411191F80A02704700BFE1
:104C180008B5D0F82002FCF7CDFB002008BD00BF86
:104C280008B5D0F82002FCF72FFC002008BD00BF13
:104C380008B5D0F82002FCF7FBFB002008BD00BF38
:104C480000487047C0010020704700BF704700BF90
:104C580012230B80004870473000002004230B808B
:104C6800004870472C00002008B50A4620B90549BD
:104C7800054801F07FFD03E00249034801F07AFD91
:104C8800004808BD641C0020707B000810B5044C67
:104C98000A462146034801F06DFD204610BD00BFBD
:104CA800641C0020907B000808B50A4620B9054915
:104CB800054801F05FFD03E00249034801F05AFD91
:104CC800004808BD641C0020A47B000808B50A46FB
:104CD80020B90549054801F04DFD03E002490348A4
:104CE80001F048FD004808BD641C0020B47B0008A2
:104CF80008B50A4620B90549054801F03BFD03E01F
:104D08000249034801F036FD004808BD641C002034
:104D1800C07B0008002070470020704700207047C3
:104D2800002070470020704700207047124A12F098
:104D3800070F07D0D11D21F00701C1F540631344C7
:104D48000A4601E04FF440630C48026000214160CC
:104D58001344083B23F007030948036059601960AE
:104D6800991A51601360074B1960074B19604FF08F
:104D78000042064B1A607047EC050020E40500204D
:104D8800E0050020F0110020DC050020EC110020D7
:104D9800124A00E01A4613688342FBD310B45168E4
:104DA8005418A04203D1406801445160104641683C
:104DB8004418A3420CD10A4C2468A34206D05B686D
:104DC8001944416013681B68036002E0046000E056
:104DD8000360904200D0106010BC7047E4050020CA
:104DE800E005002070B5044600F0F2FD304B1B686A
:104DF8000BB9FFF79BFF2F4B1B681C4247D164B1CF
:104E0800083414F0070F08D024F00704083404F01D
:104E1800070313B100F0C2F8FEE7002C39D0264B87
:104E28001B689C4237D8254B1D6801E02B46154668
:104E38006A68944202D92A68002AF7D11C4A126883
:104E480095422AD01E6808362A681A606B681B1BB0
:104E5800102B0AD9281910F0070F02D000F09EF87D
:104E6800FEE743606C60FFF793FF6A6812490B68BE
:104E78009B1A0B60124909688B4201D210490B60DA
:104E88000C4B1B681A436A6000232B6006E000265F
:104E980004E0002602E0002600E0002600F02EFED6
:104EA80016F0070F02D000F079F8FEE7304670BD23
:104EB800E0050020EC110020DC050020E4050020BE
:104EC800F011002038B338B50446A0F1080550F8B1
:104ED800043C114A126813EA020002D100F05EF89D
:104EE800FEE754F8081C11B100F058F8FEE788B145
:104EF80081B923EA020344F8043C00F069FD54F840
:104F0800043C064A11680B4413602846FFF740FF2B
:104F180000F0F4FD38BD7047EC110020DC050020DE
:104F280006480068006880F3088862B661B6BFF377
:104F38004F8FBFF36F8F00DF00BF000008ED00E068
:104F48004FF0807340F8043C40F8081C034B40F8CD
:104F58000C3C40F8202C4038704700BFB54F000883
:104F6800074B19680868B0E8F00F80F30988BFF3A9
:104F78006F8F4FF0000080F311884EF00D0E7047D0
:104F8800B41200204FF08052034B1A60BFF34F8FCA
:104F9800BFF36F8F704700BF04ED00E0EFF311809F
:104FA8004FF0500181F311887047002008B5054B78
:104FB8001B68B3F1FF3F02D0FFF7F0FFFEE7FFF7F2
:104FC800EDFFFEE76000002008B5FFF7E7FF094A9C
:104FD800136801331360BFF34F8FBFF36F8F012B3B
:104FE80007D1054B1B6813F0FF0F02D0FFF7D6FF60
:104FF800FEE708BD6000002004ED00E080F31188A2
:10500800704700BF08B5074B1B6813B9FFF7C6FF09
:10501800FEE7013B034A136013B90020FFF7EEFFD8
:1050280008BD00BF60000020EFF30980BFF36F8F59
:105038000D4B1A6820E9F00F10602DE908404FF079
:10504800500080F3118800F02FFE4FF0000080F32D
:105058001188BDE8084019680868B0E8F00F80F3C7
:105068000988BFF36F8F7047B412002008B5FFF7A7
:1050780095FF00F0B5FC18B14FF08052024B1A6052
:105088000020FFF7BBFF08BD04ED00E0064B1B68DE
:10509800064AA2FB03239B09013B054A136007222A
:1050A800044B1A60704700BF0C000020D34D6210FB
:1050B80014E000E010E000E000B583B01F4B1A7860
:1050C800D2B20192FF221A701B78DBB28DF803303E
:1050D8009DF8033003F05003194A13700722194B47
:1050E8001A6009E0174A1368013B13609DF8033002
:1050F8005B00DBB28DF803309DF8033013F0800FAE
:10510800F0D1104A13681B0203F4E0631360019B9B
:10511800DBB20A4A13700C4B1A6842F470021A6028
:105128001A6842F070421A60FFF7B0FF0022074B7E
:105138001A60FFF7F5FEFFF739FF00BF00E400E053
:10514800F4110020F811002020ED00E0600000209C
:10515800842801D0033070470020704708B500F05C
:1051680009FC002008BD00BFF0B587B00F464468B1
:1051780005680669B0F90800FFF7EAFF0023039302
:10518800029305AB019300903B46B2B229462046F4
:1051980000F06AFB012801D1059800E0002007B063
:1051A800F0BD00BF08B508B90120FFE700F014FD05
:1051B800002008BD08B500224168006800F024F905
:1051C80008BD00BF08B500F06FFE012801D0FFF749
:1051D8004DFF08BD00F1080343604FF0FF328260C5
:1051E800C360036100230360704700BF00230361AD
:1051F800704700BF43684B609A688A609A6851603C
:1052080099600861036801330360704730B40D6822
:10521800B5F1FF3F01D1026907E000F1080200E0A3
:105228001A4653681C68A542FAD253684B609960C5
:105238008A605160086103680133036030BC7047BD
:1052480003694268816891608268416851605A6860
:10525800904201D182685A600022026118680138C0
:105268001860704710B50446FFF7AEFEA26BE36BFB
:105278009A4201D1012400E00024FFF7C3FE204632
:1052880010BD00BF10B50446FFF79EFEA36B0BB917
:10529800012400E00024FFF7B5FE204610BD00BF42
:1052A80038B504461546026C3AB903685BBB4068DA
:1052B80000F05EFE002363602CE06DB9806801F0A9
:1052C80007FEA268236C1344A360626893421CD350
:1052D8002368A36000201DE0C06801F0F9FD236C7D
:1052E8005B42E2681A44E26021688A4202D262683C
:1052F8001344E360022D0AD1A36B53B1A36B013BA6
:10530800A363002006E0002004E0002002E0002063
:1053180000E00020A36B0133A36338BD026C72B1B7
:1053280010B50346C4681444C4604068844201D37D
:105338001868D8600846D96801F0CAFD10BD7047E2
:1053480010B50446FFF740FE0BE0636A63B104F151
:10535800240000F01FFD08B100F0A0FDA36C013B84
:10536800A364A36C002BF0DC4FF0FF33A364FFF7BA
:1053780049FEFFF729FE0BE0236963B104F1100031
:1053880000F008FD08B100F089FD636C013B63641F
:10539800636C002BF0DC4FF0FF336364FFF732FEE1
:1053A80010BD00BF38B510B9FFF7F8FDFEE70D4690
:1053B8000446FFF709FE2168E26B236C03FB021029
:1053C80060600020A063A160013A02FB0313E36060
:1053D8004FF0FF336364A36455B9236983B104F1C3
:1053E800100000F0D7FC01280AD1FFF7CBFD07E039
:1053F80004F11000FFF7EEFE04F12400FFF7EAFEC7
:10540800FFF700FE012038BDF8B510B9FFF7C6FD5B
:10541800FEE70D461746064619B101FB00F00130BC
:1054280000E000205430FFF7DDFC044668B10DB9F8
:10543800206002E000F154030360E6632564012163
:105448002046FFF7AFFF84F8507014B9FFF7A6FDA8
:10545800FEE72046F8BD00BFF0B585B0019210B94F
:10546800FFF79CFDFEE70E461D46044619B9036C7E
:105478001BB9012302E0012300E0002313B9FFF761
:105488008DFDFEE7022D03D1E36B012B02D102E073
:10549800012300E0002313B9FFF780FDFEE700F0C9
:1054A80003FD18B9019B1BB9012302E0012300E0A9
:1054B800002313B9FFF772FDFEE70027FFF784FD0D
:1054C800A26BE36B9A4201D3022D16D12A463146CC
:1054D8002046FFF7E5FE636A43B104F1240000F0BB
:1054E80059FC012805D1FFF74DFD02E008B1FFF78F
:1054F80049FDFFF787FD012042E0019B1BB9FFF73B
:1055080081FD00203CE01FB902A800F083FC0127C0
:10551800FFF778FD00F05CFAFFF756FD636CB3F116
:10552800FF3F01D100236364A36CB3F1FF3F01D1B6
:105538000023A364FFF766FD01A902A800F07AFC26
:10554800C0B92046FFF78EFE70B1019904F1100032
:1055580000F0EEFB2046FFF7F3FE00F0CFFA00283C
:10556800ACD1FFF70FFDA9E72046FFF7E9FE00F0F1
:10557800C5FAA3E72046FFF7E3FE00F0BFFA0020D4
:1055880005B0F0BDF0B585B0019210B9FFF706FD82
:10559800FEE70D461F46044619B9036C1BB90123E3
:1055A80002E0012300E0002313B9FFF7F7FCFEE750
:1055B80000F07AFC18B9019B1BB9012302E0012312
:1055C80000E0002313B9FFF7E9FCFEE70026FFF728
:1055D800FBFCA36B33B3E66829462046FFF79EFE23
:1055E80097B9A36B013BA363236813B900F00EFDC1
:1055F8006060236993B104F1100000F0CBFB01282F
:105608000CD1FFF7BFFC09E0E660636A33B104F12F
:10561800240000F0BFFB08B1FFF7B4FCFFF7F2FC71
:1056280001204BE0019B1BB9FFF7ECFC002045E093
:105638001EB902A800F0EEFB0126FFF7E3FC00F01C
:10564800C7F9FFF7C1FC636CB3F1FF3F01D1002339
:105658006364A36CB3F1FF3F01D10023A364FFF798
:10566800D1FC01A902A800F0E5FB08BB2046FFF722
:1056780009FEB8B1236833B9FFF7A6FC606800F0EB
:1056880023FCFFF7BFFC019904F1240000F050FB54
:105698002046FFF755FE00F031FA002897D1FFF7B2
:1056A80071FC94E72046FFF74BFE00F027FA8EE7DF
:1056B8002046FFF745FE00F021FA002005B0F0BDB6
:1056C80010B510B9FFF76AFCFEE70446FFF77CFC4B
:1056D800A46BFFF797FC204610BD00BF0A4B1B6860
:1056E8001B680BB9012300E0002323B14FF0FF3200
:1056F800064B1A607047044B1B68DB68DB685A6806
:10570800024B1A60704700BFFC110020B81200203D
:1057180010B50446006BFFF7D5FB2046FFF7D2FB18
:1057280010BD00BF70B506460C4619B98000FFF7DA
:1057380059FB044654B15C20FFF754FB054608B1F9
:10574800046304E02046FFF7BDFB00E0002525B117
:10575800B200A521286B01F0C6FB284670BD00BF2A
:1057680070B504461546002306E0C856E21882F8CC
:105778003400CA5612B101330F2BF6D9002384F82E
:105788004330062D00D90625E562E5640026266526
:10579800201DFFF72BFD04F11800FFF727FD2461FA
:1057A800C5F10705A5616462666584F8586070BD37
:1057B80038B5002406E014200E4B00FB0430FFF738
:1057C80009FD0134062CF6D90B4D2846FFF702FDDA
:1057D8000A4C2046FFF7FEFC0948FFF7FBFC094886
:1057E800FFF7F8FC0848FFF7F5FC084B1D60084B6D
:1057F8001C6038BD20120020E0120020F4120020A6
:10580800C81200200812002008130020FC110020F4
:10581800C412002010B50F4B1B6858600E4B1B6854
:10582800984207D20D4B18680A4B19680431FFF7E4
:10583800EDFC10BD04460A4B1868064B1968043184
:10584800FFF7E4FC074B1B689C4201D2054B1C6028
:1058580010BD00BFB4120020C0120020C4120020E6
:10586800FC110020B81200202DE9F04F83B00C9EE7
:10587800DDF8348010B9FFF791FBFEE78B46174639
:105888009A468146062E02D9FFF788FBFEE70E9955
:105898001046FFF747FF044600284CD0036B07F17A
:1058A8008045013D03EB850323F0070500970F9B17
:1058B80032465946FFF754FF524649462846FFF7F5
:1058C8003FFB2060B8F1000F01D0C8F80040FFF797
:1058D8007BFB224A136801331360214B1B683BB9D9
:1058E8001F4B1C601368012B0CD1FFF761FF09E007
:1058F8001C4B1B6833B91A4B1B68DB6A9E4201D3E9
:10590800174B1C60184A1368013313606364E36A19
:10591800012505FA03F015490A6802430A6003EBFA
:1059280083039A00211D12481044FFF763FCFFF718
:1059380069FB2C4601E04FF0FF34012C09D1094BDB
:105948001B6833B1064B1B68DB6A9E4201D9FFF71F
:1059580019FB204603B0BDE8F08F00BFB01200204D
:10596800B412002000120020DC1200201C130020BA
:105978002012002000B585B0002303930293019301
:10598800009380220D490E48FFF76EFF01280ED1C3
:10599800FFF704FB4FF0FF320A4B1A6001220A4B53
:1059A8001A600022094B1A60FFF786FB03E010B962
:1059B800FFF7F4FAFEE705B05DF804FB307C000859
:1059C800995C0008B812002000120020C0120020C4
:1059D800024A136801331360704700BFAC120020FD
:1059E800F8B53B4B1B68002B64D13A4B1A6801325F
:1059F8001A601E6896B9384B1B681B6813B1FFF70D
:105A0800CDFAFEE7344A1168344B18681060196003
:105A1800334A136801331360FFF760FE314B1B688C
:105A28009E4203D200243AE0012400E000242A4BDD
:105A38001B681B680BB9012300E0002323B14FF05A
:105A4800FF32284B1A602AE0234B1B68DB68DD68AD
:105A58006B689E4202D2234A136020E02F1D38460D
:105A6800FFF7EEFBAB6A1BB105F11800FFF7E8FB87
:105A7800EB6A012202FA03F11B4802680A4302603A
:105A880003EB83039A00394618481044FFF7B2FB2A
:105A9800EA6A174B1B68DB6A9A42C5D2C7E7144B00
:105AA8001B68DB6A03EB83039A00104B9B58012B9E
:105AB80006D806E00F4A136801331360002400E09B
:105AC80001240D4B1B6803B101242046F8BD00BF1B
